:100000000C941F020C94CA000C9443020C944302FB
:100010000C9443020C9443020C9443020C9443024C
:100020000C9443020C9443020C9443020C9443023C
:100030000C9443020C9443020C9443020C9443022C
:100040000C9443020C9443020C9472000C94340000
:100050000C9443020C9443020C9443020C9443020C
:100060000C9443020C9443021F920F920FB60F920E
:1000700011242F933F934F935F936F937F938F93AD
:100080009F93AF93BF93EF93FF93E09166018091AD
:100090006501E817ECF481E08E0F809366010E2E67
:1000A000000CFF0BEF5FFE4F80810E944907FF911C
:1000B000EF91BF91AF919F918F917F916F915F91E0
:1000C0004F913F912F910F900FBE0F901F90189559
:1000D0001092660181E08093670181E090E00E94C8
:1000E0003907E5CF1F920F920FB60F9211242F936D
:1000F0003F934F935F936F937F938F939F93AF93B0
:10010000BF93EF93FF938091C502811115C00E94A8
:100110004C07882321F08A3011F08D30F1F40E94D1
:100120005B07E091C3020E2E000CFF0BE15AFD4F5E
:10013000108281E08093C502FF91EF91BF91AF9152
:100140009F918F917F916F915F914F913F912F91EF
:100150000F900FBE0F901F901895E091C3021E16CE
:1001600074F4883061F4E150E093C3020E945B07AD
:1001700080E20E945B0788E00E945B07DDCF91E090
:100180009E0F9093C3020E2E000CFF0BE15AFD4F01
:100190008083F2CF1F920F920FB60F9211248F938C
:1001A00081E0809300018F910F900FBE0F901F9000
:1001B0001895CF93DF9300D01F92CDB7DEB741E003
:1001C00061E085E090E00E94180760E090E080E048
:1001D0000E94C50563E070E090E080E00E94C502E7
:1001E0000E940D0588E691E00E94F60388E691E002
:1001F0000E949504789452E1452E8E010F5F1F4FA7
:1002000062E0E62E62E0F62E77EC672E72E0772E43
:100210006E0182E0C80ED11C5E0193E0A90EB11CF4
:10022000E3E68E2EE2E09E2E2EE0522E39E0332EB3
:100230004AE0242E8091C502882309F442C08091AF
:1002400067018823F1F143E050E06EEF71E08FE544
:1002500092E00E94DC08892B09F089C01F930F935C
:10026000DF92CF92BF92AF92FF92EF929F928F92C6
:100270000E941A090FB6F894DEBF0FBECDBFC801A9
:100280000E9449058823D9F36DE172E081E091E095
:100290000E94D508109265016AE572E081E091E064
:1002A0000E94C108809165018C5F80936501109266
:1002B000670181E090E00E9409071092C502109248
:1002C000C30280910001882309F4B4CFC8010E94C1
:1002D000760588E691E00E9451048B819AE0592EC0
:1002E000652D0E94A108482F60E088E691E00E94F9
:1002F000B0048B81652D0E94A108492F62E088E639
:1003000091E00E94B0046AE388E691E00E94B7039E
:100310008A81652D0E94A108482F65E088E691E05A
:100320000E94B0048A81652D0E94A108492F67E0D0
:1003300088E691E00E94B0046AE388E691E00E94BA
:10034000B7038981652D0E94A108482F88E691E0B6
:100350000E94B0048981652D0E94A108492F6CE09C
:1003600088E691E00E94B004109200015DCF67E141
:1003700072E08FE592E00E94CC08892B29F58981F3
:100380001F928F938A811F928F938B811F928F93DD
:10039000FF92EF921F923F927F926F920E94EA0823
:1003A0006BE172E081E091E00E94D50867EC72E0B9
:1003B00081E091E00E94C108209265010FB6F89497
:1003C000DEBF0FBECDBF68CF6EE172E08FE592E079
:1003D0000E94CC08892B79F443E0B80190E080E0DA
:1003E0000E947D0264E272E081E091E00E94D50803
:1003F0005092650151CF63E372E08FE592E00E9475
:10040000CC08892B71F443E0B80190E080E00E94B1
:10041000A702C8010E9449058823D9F368E372E066
:10042000E3CF8091C302882309F436CF67E472E0FA
:1004300081E091E00E94D508409265012DCF4427CC
:100440005FEF68E04FBF5DBF6EBF05D011D00E9467
:10045000D9000C942B0212E00FE5B1E0A0E0FDE121
:10046000E8EF02C005900D92A017B107D9F70895E3
:10047000112412E007ECB2E0AFE501C01D92A01715
:10048000B107E1F708950C944302FB9A0895FB9895
:1004900008959FB39F7C9FBB9FB38295807F892BDC
:1004A0008FBB0895CF93C62F0E944902CC2319F029
:1004B000CF910C944502CF910C94470292BD81BD1F
:1004C00060BDFA9AF99A089592BD81BDF89A80B5F7
:1004D00008958FB38695817008951F93CF93DF930E
:1004E000EC01162F0E9469028111FCCF612FCE0111
:1004F000DF91CF911F910C945E02EF92FF920F93C8
:100500001F93CF93DF938B01040F111DEB017C012F
:10051000E61AF70AC7018C0F9D1FC017D10739F4DF
:10052000DF91CF911F910F91FF90EF900895699106
:100530000E946D02EFCFCF93DF93EC010E9469021E
:100540008111FCCFCE01DF91CF910C946402EF9228
:10055000FF920F931F93CF93DF938B01040F111D15
:10056000EB017C01E61AF70AC7018C0F9D1FC0172B
:10057000D10739F4DF91CF911F910F91FF90EF9048
:1005800008950E949B028993EFCFAC01E9E6F0E069
:1005900090819A01220F331F01C0660F2A95EAF756
:1005A000692B60839DB321E030E001C0220F4A95A2
:1005B000EAF7892F822B8DBB08959DB321E030E0AF
:1005C00001C0220F8A95EAF7209529232DBB0895B3
:1005D00090E0883028F0885091E0873008F092E071
:1005E0008091680021E030E001C0220F9A95EAF77F
:1005F000822B80936800089520E0883028F088508E
:1006000021E0873008F022E03091680081E090E03E
:1006100001C0880F2A95EAF78095832380936800AC
:10062000089520E0883030F098EF980F21E097305F
:1006300008F022E030E0F901EE0FFF1FE659FE4F0F
:100640000190F081E02D908143E0220F331F4A9505
:10065000E1F7482F421B21E030E001C0220F4A950C
:10066000EAF7922B90830C94E80220E0883030F077
:1006700098EF980F21E0973008F022E030E0F90180
:10068000EE0FFF1FE659FE4F0190F081E02D4081F3
:1006900053E0220F331F5A95E1F7821B282F81E088
:1006A00090E001C0880F2A95EAF780958423808323
:1006B0000895FC012181F8E02F9F90011124622B05
:1006C000FC0180810E944E0691E08F3F09F090E08E
:1006D000892F08950F931F93CF938C01C62F6460C9
:1006E0000E945903811106C0C0E08C2FCF911F9149
:1006F0000F91089581E090E00E9409086C2F6B7FB4
:10070000C8010E945903C82F882371F382E390E047
:100710000E940908EACF1F93CF93DF93EC01162FB5
:100720000E945903882349F0612FCE010E946A0379
:100730008170DF91CF911F91089580E0F9CF0F93E1
:100740001F93CF938C01C62F607F0E948B03882359
:1007500061F080E1C89FB0011124C8010E948B03A1
:100760008170CF911F910F91089580E0F9CF0F9381
:100770001F93CF938C01C62F607F61600E948B0313
:10078000882361F06C2F6295607F6160C8010E94D0
:100790008B038170CF911F910F91089580E0F9CF65
:1007A0000F931F93CF93DF938C01EB01699161113C
:1007B00002C081E005C0C8010E94B7038111F6CFD5
:1007C000DF91CF911F910F91089560E00C94590330
:1007D000CF9361E00E949F03C82F882321F082E01D
:1007E00090E00E94FF078C2FCF910895CF93DF9365
:1007F000EC0182E390E00E94FF0760E3CE010E94DB
:100800008B03811105C0C0E08C2FDF91CF9108953B
:1008100084E090E10E94090860E3CE010E948B030E
:10082000882389F384E690E00E94090860E3CE0102
:100830000E948B03882339F384E690E00E94090824
:1008400060E2CE010E948B038823E9F284E690E007
:100850000E94090868E2CE010E949F03882399F252
:1008600085E390E00E9409086CE0CE010E949F039E
:10087000882349F285E390E00E940908CE010E9496
:10088000E803882309F4BFCF66E0CE010E949F03EE
:10089000C82F882309F4B7CF85E390E00E940908A8
:1008A000B3CFCF9362E00E949F03C82F882321F02B
:1008B00082E090E00E94FF078C2FCF9108950F9364
:1008C0001F9360EC012B022B032B09F460E8640FEB
:1008D00060681F910F910C949F03EF92FF920F930A
:1008E0001F93CF93DF938C017A0188E0689FB0015A
:1008F00011246064C8010E949F038823A1F0E701CE
:1009000088E0E80EF11C6991C8010E94B7038823B2
:1009100051F0CE15DF05B9F7DF91CF911F910F91FF
:10092000FF90EF90089580E0F7CFEF92FF920F9342
:100930001F93CF937C0108E911E0C0E0A8016C2F60
:10094000C7010E946D04882329F0CF5F085F1F4F05
:10095000C830A1F7CF911F910F91FF90EF900895AC
:10096000FF920F931F93CF93DF938C01F62EC42F2A
:1009700060E86F0D60680E949F03811108C080E0ED
:100980008170DF91CF911F910F91FF90089584E0C6
:10099000C89FE0011124C059DE4F6881C8010E9440
:1009A000B703882361F36981C8010E94B7038823D4
:1009B00031F360EC6F0D6068C8010E949F038823CB
:1009C000F1F26A81C8010E94B7038823C1F26B81EA
:1009D000C8010E94B703D4CF68E10C949F036CE177
:1009E0000C949F0368E00C949F036CE00C949F03AD
:1009F0000C94F5046EE00C949F030C94F5046DE0E8
:100A00000C949F0366E00C949F0364E00C949F0396
:100A100067E00C949F030C940205CF93DF931F9221
:100A2000CDB7DEB7198221E0AE014F5F5F4F62E0C4
:100A300088E60E94BA068F3F11F090E025C08981B8
:100A40008F7B898321E0AE014F5F5F4F62E088E6D4
:100A50000E9487068F3F89F721E0AE014F5F5F4F0D
:100A60006EE088E60E94BA068F3F39F78981837E5F
:100A7000898321E0AE014F5F5F4F6EE088E60E9400
:100A8000870691E08F3FC9F6892F0F90DF91CF91B4
:100A900008950F931F93CF93DF9300D01F92CDB78C
:100AA000DEB78C01FC0180810E94F8078983F80180
:100AB00081810E94F8078A83F80182810E94F807E9
:100AC0008B8323E0AE014F5F5F4F60E088E60E94BA
:100AD000870691E08F3F09F090E0892F0F900F90EB
:100AE0000F90DF91CF911F910F9108951F93CF9396
:100AF000DF93EC0123E0AC0160E088E60E94BA06D7
:100B0000182F88810E94EF07888389810E94EF0750
:100B100089838A818F730E94EF078A8381E01F3F58
:100B200009F080E0DF91CF911F910895ECEBF0E0A8
:100B30008081846080830895ECEBF0E080818B7F7E
:100B400080830895ECEBF0E08081806480830895D9
:100B50008091BC00881F8827881F08958091C60255
:100B600084688093BC00089581E08093C602ECEB1A
:100B7000F0E080818160808308951092C602ECEBE2
:100B8000F0E080818E7F80830895CF93C62F8852B6
:100B90009E4FFC0180818093B80061E070E08DED94
:100BA00091E00E94110861E070E08AED91E00E94FE
:100BB0001108CC2329F00E94B405CF910C9496051E
:100BC0000E94BD05FACF8091B900887F0895809179
:100BD000C602846A8093BC0008958091C60284692D
:100BE0008093BC0008958093BB000C94AE05809167
:100BF000BB0008950E94E7058091BC0087FFFCCFF1
:100C00008091B900887F883011F0803109F48FEF2E
:100C100008950E94ED058091BC0084FDFCCF809179
:100C2000B900887F883F09F48FEF08959091BC0048
:100C300097FFFCCF8093BB000E94AE058091BC0063
:100C400087FFFCCF8091B900887F883121F0803404
:100C500011F0883209F48FEF08950F931F93CF930B
:100C60008C01C62F0E94AE05C1110E94A205809181
:100C7000BC0087FFFCCF8091BB00F801808380918E
:100C8000B900887FCC2321F0803521F48FEF02C09A
:100C90008835E1F3CF911F910F910895CF93DF93A2
:100CA000D82FC62F0E94FA058F3F79F48D2F880F19
:100CB0000E9416068F3F49F48C2F0E9416068F3F24
:100CC00021F4DF91CF910C940906DF91CF91089523
:100CD0000F931F93CF93C82F8B010E94FA058F3F6C
:100CE00091F48C2F880F81600E9416068F3F59F473
:100CF00060E0C8010E942D068F3F29F4CF911F911B
:100D00000F910C940906CF911F910F910895FF92B6
:100D10000F931F93CF93DF93D82FC62FF42E152F49
:100D2000022F0E94FA058F3FF9F48D2F880F0E9441
:100D300016068F3FC9F48C2F0E9416068F3FA1F430
:100D4000CF2DD12F0C0F1D2F111D0C171D0739F49E
:100D5000DF91CF911F910F91FF900C94090689911B
:100D60000E9416068F3F89F3DF91CF911F910F915B
:100D7000FF900895CF92DF92EF92FF920F931F930F
:100D8000CF93DF93C82FD62F7A01022F0E94FA0546
:100D90008F3FB1F5CC0F8C2F0E9416068F3F81F547
:100DA0008D2F0E9416068F3F59F50E94FA058F3F3E
:100DB00039F58C2F81600E9416068F3F09F510E0EF
:100DC000D0E0C0E0680181E0C81AD1080C171D0707
:100DD00051F4DF91CF911F910F91FF90EF90DF9031
:100DE000CF900C94090661E0CC16DD0609F460E0B2
:100DF000C7018C0F9D1F0E942D0621968F3F31F356
:100E0000DF91CF911F910F91FF90EF90DF90CF90E6
:100E10000895009749F0019749F490E28091C1004C
:100E2000892B8093C100089590E8F8CF90E0F6CF29
:100E3000CF93C42F2091C10028612093C100880F57
:100E4000991FFC01E052FE4F808191819093C50073
:100E50008093C400662321F081E090E00E9409079E
:100E6000CC2329F090E080E0CF910C940907CF913A
:100E70000895009751F0019751F480E29091C100DC
:100E8000809589238093C100089580E8F7CF80E0A2
:100E9000F5CF8093C60008958091C6000895809193
:100EA000C000881F8827881F08958091C00085FB97
:100EB000882780F90895CF93C82F0E94550788236B
:100EC000E1F3C093C600CF9108958091C00087FFE1
:100ED000FCCF8091C60008950F931F93CF938C0190
:100EE000C0E0F801EC0FF11D8081811104C0CF91A9
:100EF0001F910F9108950E945B07CF5FF2CF0F9370
:100F00001F93CF93DF93D62F8C01C0E0CD1739F01C
:100F10000E946507F80181938F01811107C08FEF4F
:100F20008C0FDF91CF911F910F910895CF5FEECF7E
:100F3000EF92FF920F931F93CF93DF937C01D62FF5
:100F4000C0E087010C0F111DCD1768F40E946507E2
:100F5000F8018083982F9F7D21F08A3011F08D3029
:100F600071F40E945B07F8011082C111C1508C2FEF
:100F7000DF91CF911F910F91FF90EF900895CC23B7
:100F800061F0883051F4C1500E945B0780E20E94FA
:100F90005B0788E00E945B07D4CF0E945B07CF5FAE
:100FA000D0CF0F931F93CF93DF93FC01EB01C801C8
:100FB000821B930BBA016C1B7D0B0E94AD08EC1BCE
:100FC000FD0B6E9FC0016F9F900D7E9F900D1124B1
:100FD000820F931FDF91CF911F910F910895982F4A
:100FE00092959F708F702AE0929F800D1124089532
:100FF0006AE00E94A1088295807F890F0895019779
:1010000008F4089520EA3FE0000021503109E1F79B
:10101000F6CF019728F00000000000000000F9CF93
:101020000895FC01A081B181AA0FBB1FAE50BE4F35
:101030000D90BC91A02D828121E030E001C0220FF3
:101040008A95EAF78C9162307105B9F4282B2C93BC
:10105000A081B181AA0FBB1FA850BE4F0D90BC91BB
:10106000A02D2C91328181E090E001C0880F3A954B
:10107000EAF7809582238C930895209528232C935A
:101080006130710529F7A081B181AA0FBB1FA8505B
:10109000BE4F0D90BC91A02D8C91928101C0660F26
:1010A0009A95EAF7682B6C930895DC01ED91FC9119
:1010B0001197EE0FFF1FE850FE4F0190F081E02DD9
:1010C00012962C9181E090E001C0880F2A95EAF7F2
:1010D0009081662319F0892B808308958095892358
:1010E000FBCFDC01ED91FC911197EE0FFF1FE85053
:1010F000FE4F0190F081E02D908112968C9121E0BD
:1011000030E001C0220F8A95EAF7892F8227808379
:101110000895DC01ED91FC911197EE0FFF1FE45152
:10112000FE4F0190F081E02D208130E012968C91ED
:10113000F90102C0F595E7958A95E2F7CF01817034
:101140000895991B79E004C0991F961708F0961B23
:10115000881F7A95C9F780950895AA1BBB1B51E19A
:1011600007C0AA1FBB1FA617B70710F0A61BB70B17
:10117000881F991F5A95A9F780959095BC01CD01BC
:101180000895FB01DC010D900020E9F71197019013
:101190000D920020E1F70895FB01DC018D91019093
:1011A00080190110D9F3990B0895FB01DC0101901E
:1011B0000D920020E1F70895FB01DC014150504001
:1011C00030F08D910190801919F40020B9F7881B37
:1011D000990B0895AEE0B0E0E0EFF8E00C94BA0EA1
:1011E0000D891E898F89988D26E02C831A830983A7
:1011F00097FF02C080E090E801979E838D83AE0147
:10120000455E5F4F698D7A8DCE0101960E9433094C
:101210004D815E8157FD0AC02F81388542175307E3
:101220000CF49A01020F131FF80110822E96E4E0CD
:101230000C94D60EAEE0B0E0E0E2F9E00C94BC0E07
:1012400085E08C838B899C899A838983AE01495E72
:101250005F4F6D897E89CE0101960E94980C2E9673
:10126000E2E00C94D80EABE0B0E0E9E3F9E00C94D6
:10127000AC0E7C013B018A01FC011782168283813E
:1012800081FFC8C1CE0101965C01F7019381F30192
:1012900093FD859193FF81913F01882309F453C108
:1012A000853239F493FD859193FF81913F01853219
:1012B00029F4B70190E00E94030EE7CF912C212C76
:1012C000312CFFE1F31538F08B3211F190F48032BC
:1012D00009F1833229F137FC3CC020ED280F2A3078
:1012E00050F536FE20C08AE0989E200D1124922EE3
:1012F00006C08D3291F0803371F7689430F8F301B5
:1013000093FD859193FF81913F018111DACF21C037
:10131000689431F8689432F8F2CF689433F8EFCFDC
:10132000689434F8ECCFEAE02E9E200D1124222E92
:10133000689435F8E4CF8E3229F436FC04C1689401
:1013400036F8DDCF8C3619F4689437F8D8CF883664
:10135000B1F2982F9F7D95549330E0F08336A1F140
:101360008337C1F1833509F063C02801F2E04F0EE5
:10137000511CF801C080D180692D70E036FC02C09C
:101380006FEF7FEFC6010E94B10D4C01689437F8F2
:1013900082010AC00C5F1F4FFFE3F9838824839406
:1013A000912C6501E89437F833FE2DC0522C81143E
:1013B000910471F5552009F468CFB70180E290E0FF
:1013C0000E94030E5A94F6CFF801808189830E5F44
:1013D0001F4FE4CF2801F2E04F0E511CF801C080EE
:1013E000D180692D70E036FC02C06FEF7FEFC6013F
:1013F0000E94BC0D4C018201D5CFB70180E290E084
:101400000E94030E2A942814190409F0B0F7CECFD5
:10141000F60137FC859137FE81916F01B70190E0AD
:101420000E94030E51105A94F1E08F1A9108BFCF19
:10143000843619F0893609F077C0F80137FE6BC0A1
:1014400060817181828193810C5F1F4FF32DFF7644
:101450003F2E97FF09C090958095709561957F4FBD
:101460008F4F9F4F689437F82AE030E0A5010E9423
:101470004B0EC82ECA188C2C432C36FE0CC0E89498
:1014800040F8C91440F434FE05C032FC03C0F32D0B
:10149000FE7E4F2E892C44FE95C0FE01EC0DF11D01
:1014A0008081803309F087C0242D297E422E842D2F
:1014B0008870582E43FC95C040FE8FC09C2C82142F
:1014C00018F42C0C922C981844FE91C0B70180E3BC
:1014D00090E00E94030E42FE09C088E790E041FEC2
:1014E00002C088E590E0B7010E94030EC91408F419
:1014F0008AC0CA94D12C9FEFC91AD90ACA0CDB1C26
:10150000F60182916F01B70190E00E94030EAC14C6
:10151000BD04B1F74FCF60817181072E000C880B9D
:10152000990B0E5F1F4F92CFD32CE894D4F82AE08A
:1015300030E0853739F1232D297FD22E8F3601F106
:1015400048F48835A9F0F701868197812B96E2E16E
:101550000C94C80E803749F08837A9F7D4FE02C032
:101560006894D2F820E130E00DC06894D4F8F6CF4A
:1015700034FE03C0822F8660D82E20E132E002C004
:1015800028E030E0F801D7FE0FC0608171818281D0
:1015900093810C5F1F4FA5010E944B0EC82ECA18E5
:1015A0003D2CE89437F867CF6081718190E080E04E
:1015B0000E5F1F4FF0CF42FC02C0839478CF83941C
:1015C000839475CF842D867809F471CFF6CFB70157
:1015D00080E290E00E94030E83948214C0F3512CA9
:1015E00073CF522C5818821408F46ECFF8CF842D84
:1015F000867809F47BCF8BE241FE80E247FC8DE2E6
:10160000B70190E071CFB70180E390E00E94030E34
:101610009A946CCF8FEF9FEF99CF20FD09C0FC010A
:1016200023FD05C022FF02C0738362835183408380
:10163000089544FD17C046FD1DC0DB01FC01AA0F43
:10164000BB1FEE1FFF1F1094D1F76A0F7B1F8E1F69
:101650009F1F660F771F881F991F620F711D811DC5
:10166000911D089533E0660F771F881F991F315031
:10167000D1F7F3CF34E0F7CF0F931F93CF93DF93DE
:101680008C01C8010E94C70DEC0197FD08C00E94A3
:101690009D0D892BB1F7B801CE010E94330ECE010A
:1016A000DF91CF911F910F9108958F929F92AF92EA
:1016B000BF92EF92FF920F931F93CF93DF938C0112
:1016C000D62F7A01B22E0E94C70D9C0133272B32F0
:1016D000310529F02D323105A9F46894B7F8D150BD
:1016E00061F480E0DF91CF911F910F91FF90EF9017
:1016F000BF90AF909F908F900895C8010E94C70D32
:1017000097FDEFCFCB2DCD7F2B2D2073F9F48033B8
:10171000E9F4AA24AA94AD0E89F0C8010E94C70D6D
:1017200097FD0CC0282F2F7D283561F4C264D2505C
:1017300029F0C8010E94C70D97FF08C0812C912C89
:1017400054011BC0B6FE2BC0C260DA2D812C912C37
:10175000540120ED280F283028F1C4FD09C02A309B
:1017600008F1C6FF05C02F7D3FEE320F3630C8F0BE
:10177000B8010E94330EC1FFB4CFC7FF08C0B094B8
:10178000A09490948094811C911CA11CB11C2C2FBE
:10179000B501A401C7010E940D0B81E0A3CFC26176
:1017A000D4CF27504C2FC501B4010E94190B4B0117
:1017B0005C01C260D15009F3C8010E94C70D97FFB8
:1017C000C8CFD9CFA0E2B0E0E8EEFBE00C94B10EB8
:1017D0005C01962E7A01CE0101966C0180E2F60141
:1017E00011928A95E9F7F501B381890130E020E093
:1017F000712C812CA0E041E050E0F801B3FD85910F
:10180000B3FF8191982F8F01811107C010E000E094
:10181000C801A096EDE00C94CD0E8E3519F421157B
:10182000310541F1A21713064CF48D3549F18D3283
:1018300029F4811006C0882483941DC0882009F4EF
:1018400064C0E92FE695E695E695EC0DFD2DF11DBA
:10185000892F8770BA0101C0660F8A95EAF78081E7
:10186000682B6083791651F0971510F49F5FE9CFCC
:101870009150E7CFA1E02F5F3F4FBFCF812CFBCF2F
:10188000882019F08E8180628E83AA2359F0F60198
:101890009E012F5D3F4F8081809580833196E217B6
:1018A000F307C9F788248394C5010E94C70D97FDEB
:1018B00016C0E82FE695E695E695EC0DFD2DF11D99
:1018C000208130E0AC014770552702C0359527953F
:1018D0004A95E2F720FD06C0B5010E94330E88202C
:1018E00069F094CFE114F10429F0F7018083C70176
:1018F00001967C019A94812C9110D6CFE114F104C9
:1019000009F486CFF701108283CFE82FE695E6959C
:10191000E695EC0DFD2DF11D982F9770BA0101C0D1
:10192000660F9A95EAF79081692B6083782EA3CF92
:10193000B0E0A0E0EEE9FCE00C94AF0E6C01EB012E
:101940005A01FC0117821682512CF601E380FE0138
:10195000E3FC8591E3FE8191182FEF018823E9F0E4
:1019600090E00E949D0D892B21F0C6010E943C0B46
:10197000ECCF153241F4FE01E3FC1591E3FE119129
:10198000EF01153269F4C6010E94C70D97FD8EC0A4
:101990001817D9F2B6010E94330E852D90E08AC047
:1019A00000E01A3231F4E3FC1591E3FE1191EF01EE
:1019B00001E0F12C20ED210F2A3048F101FF37C062
:1019C000FF2059F31836B1F11C3609F43DC011233C
:1019D00021F3612F70E086EC9DE10E94A60D892B1A
:1019E000E1F2912C812C00FD06C0F50180809180F0
:1019F000C50102965C011E3679F5F60146815781D4
:101A000070E060E0202FC4010E940D0B9ECF0260A9
:101A10006F2D70E090E080E040E20E94190BF62EFE
:101A2000FE01E3FC1591E3FE1191EF01C3CFFF240A
:101A3000FA94C8CFFE01E3FC1591E3FE1191EF018A
:101A4000183609F0C4CF08600460FE01E3FC15916C
:101A5000E3FE1191EF01BBCF1336C1F401FD02C0CB
:101A6000FF24F394C6010E94C70D97FD1FC0811487
:101A7000910429F0F4018083C40101964C01FA9489
:101A8000F110F0CF00FD61CF53945FCF1B35B9F457
:101A90009E01A4016F2DC6010E94E20BEC01892B6F
:101AA00089F7F6018381807309F477CF8FEF9FEF79
:101AB000511073CFCDB7DEB7EFE00C94CB0EC6015B
:101AC0000E943C0B97FDF2CF1F36A9F130F414367B
:101AD00041F0193639F0006405C01337B9F01537F5
:101AE000D1F70062202FA4016F2DC6010E94550B73
:101AF0008111C8CFD6CF8114910429F0F4016082FE
:101B0000C40101964C01FA94FF2071F0C6010E94B5
:101B1000C70D3C0197FD08C00E949D0D892B59F30C
:101B2000B601C3010E94330E8114910409F4AACFB7
:101B3000F4011082A7CF0061D5CF91110C94A90EAA
:101B4000803219F089508550C8F70895FC0105903E
:101B5000061621F00020D9F7C00108953197CF0172
:101B60000895FC010590615070400110D8F78095F0
:101B700090958E0F9F1F0895FC0161507040019059
:101B80000110D8F7809590958E0F9F1F0895CF93E1
:101B9000DF93EC012B8120FF1AC026FF0CC02F7BA6
:101BA0002B838E819F8101969F838E838A8190E013
:101BB000DF91CF91089522FF18C0E881F9818081DB
:101BC000082E000C990B009729F420622B838FEFCD
:101BD0009FEFEECF3196F983E8832E813F812F5F0F
:101BE0003F4F3F832E839927E3CFEA85FB850995F5
:101BF00097FFF3CF2B81019621F080E2822B8B831C
:101C0000E6CF80E1FBCF0F931F93CF93DF93182F85
:101C1000092FEB018B8181FD09C01FEF0FEF812F91
:101C2000902FDF91CF911F910F91089582FF14C0E3
:101C30002E813F818C819D81281739073CF4E881F2
:101C4000F981CF0101969983888310838E819F81CA
:101C500001969F838E83E3CFE885F985812F0995CF
:101C6000892BA1F3DACFFB01238120FF11C026FDD0
:101C70000FC08F3F980771F082832F7D20642383EC
:101C8000268137812150310937832683992708958A
:101C90008FEF9FEF0895FA01AA27283051F12031E4
:101CA00081F1E8946F936E7F6E5F7F4F8F4F9F4FF0
:101CB000AF4FB1E03ED0B4E03CD0670F781F891F32
:101CC0009A1FA11D680F791F8A1F911DA11D6A0F00
:101CD000711D811D911DA11D20D009F468943F91B3
:101CE0002AE0269F11243019305D3193DEF6CF01B2
:101CF0000895462F4770405D4193B3E00FD0C9F778
:101D0000F6CF462F4F70405D4A3318F0495D31FDE4
:101D10004052419302D0A9F7EACFB4E0A695979537
:101D2000879577956795BA95C9F70097610571050D
:101D300008959B01AC010A2E069457954795379557
:101D40002795BA95C9F7620F731F841F951FA01DB1
:101D500008959927882708952F923F924F925F9276
:101D60006F927F928F929F92AF92BF92CF92DF92AB
:101D7000EF92FF920F931F93CF93DF93CDB7DEB710
:101D8000CA1BDB0B0FB6F894DEBF0FBECDBF0994A4
:101D90002A88398848885F846E847D848C849B84FB
:101DA000AA84B984C884DF80EE80FD800C811B8109
:101DB000AA81B981CE0FD11D0FB6F894DEBF0FBE38
:101DC000CDBFED0108956364696E6F7073757858C7
:101DD0005B0012E0A0E0B1E0E8EFFDE102C0059099
:101DE0000D92AF35B107D9F722E0AFE5B2E001C0FF
:081DF0001D92A73CB207E1F7C8
:101DF800010A0D41565220425350205465726D69B4
:101E08006E616C0A0D0A0D4350553A2041546D65B8
:101E18006761333238500A0D436C6F636B3A203177
:101E2800364D487A0A0D466C6173683A2033324B56
:101E3800420A0D5352414D3A20324B420A0D454554
:101E480050524F4D3A20314B420A0D0A0D3E2000A8
:101E580000000000005E000027016B006C006D00B0
:101E680001024C00207C207C04054C5F06055F00C5
:101E78004C00200307045F0007044C0006022003FF
:101E880007054C00070520030101010101011F009E
:101E98001F101010101010001F0101010101010096
:101EA80001010101010101001F00000000001F00E5
:101EB8001F01010101011F001F00000000000000B8
:101EC8001F10101010101F00480C0100050100041D
:101ED800A001CF0067003300190008002300260086
:101EE8002900240027002A00250028002B007365FC
:101EF80074002530326868643A2530326868643A7C
:101F080025303268686400676574000A0D007374D0
:101F18006F7265000A0D54696D652073746F726580
:101F2800642E006C6F6164000A0D54696D65206C45
:101F38006F616465642E000A0D496E76616C696490
:0F1F480020636F6D6D616E642E000A0D3E2000E8
:040000030000043EB7
:00000001FF
