:100000000C94F9000C941D010C941D010C941D011D
:100010000C941D010C9434000C941D010C941D01D2
:100020000C941D010C941D010C941D010C946A008C
:100030000C941D010C941D010C941D010C941D01C8
:100040000C941D010C941D010C9490000C94BA00AA
:100050000C941D010C941D010C941D010C941D01A8
:100060000C941D010C941D011F920F920FB60F925C
:1000700011242F933F934F935F936F937F938F93AD
:100080009F93AF93BF93EF93FF938EE091E00E9415
:100090009701811104C088E091E00E947F0181E115
:1000A00091E00E949701811104C08BE091E00E94D1
:1000B0007F01FF91EF91BF91AF919F918F917F91C0
:1000C0006F915F914F913F912F910F900FBE0F90C5
:1000D0001F9018951F920F920FB60F9211242F9315
:1000E0003F934F935F936F937F938F939F93AF93C0
:1000F000BF93EF93FF9385E091E00E947F01FF9112
:10010000EF91BF91AF919F918F917F916F915F918F
:100110004F913F912F910F900FBE0F901F90189508
:100120001F920F920FB60F9211242F933F934F936C
:100130005F936F937F938F939F93AF93BF93EF934F
:10014000FF9381E0809343010E94B8028053809323
:100150004401FF91EF91BF91AF919F918F917F915A
:100160006F915F914F913F912F910F900FBE0F9024
:100170001F9018951F920F920FB60F9211242F9374
:100180003F934F935F936F937F938F939F93AF931F
:10019000BF93EF93FF938091030190910201891720
:1001A00004F5E0910001F091010191E0980F909326
:1001B0000301E80FF11D87FDFA9580810E94B502C9
:1001C000FF91EF91BF91AF919F918F917F916F912F
:1001D0005F914F913F912F910F900FBE0F901F9005
:1001E000189581E08093040181E090E00E94A502CF
:1001F000E7CF44275FEF68E04FBF5DBF6EBF05D01C
:1002000011D00E94FD020C94050111E003E4B1E05D
:10021000A0E0F6E0E2E902C005900D92A017B10758
:10022000D9F70895112411E005E4B1E0A3E401C079
:100230001D92A017B107E1F708950C941D01FC0170
:10024000A081B181AA0FBB1FA65EBE4F0D90BC91CD
:10025000A02D828121E030E001C0220F8A95EAF7CB
:100260008C9162307105B9F4282B2C93A081B18157
:10027000AA0FBB1FA05EBE4F0D90BC91A02D2C916C
:10028000328181E090E001C0880F3A95EAF78095CD
:1002900082238C930895209528232C936130710537
:1002A00029F7A081B181AA0FBB1FA05EBE4F0D90A0
:1002B000BC91A02D8C91928101C0660F9A95EAF7AE
:1002C000682B6C930895DC01ED91FC911197EE0F72
:1002D000FF1FE05EFE4F0190F081E02D12962C9101
:1002E00081E090E001C0880F2A95EAF790816623AB
:1002F00019F0892B8083089580958923FBCFDC0139
:10030000ED91FC911197EE0FFF1FE05EFE4F019003
:10031000F081E02D908112968C9121E030E001C0B7
:10032000220F8A95EAF7892F822780830895DC01BE
:10033000ED91FC911197EE0FFF1FEC5EFE4F0190C7
:10034000F081E02D208130E012968C91F90102C0FD
:10035000F595E7958A95E2F7CF0181700895AC0194
:10036000E9E6F0E090819A01220F331F01C0660F89
:100370002A95EAF7692B60839DB321E030E001C044
:10038000220F4A95EAF7892F822B8DBB08959DB3E2
:1003900021E030E001C0220F8A95EAF72095292359
:1003A0002DBB089590E0883028F0885091E0873088
:1003B00008F092E08091680021E030E001C0220F57
:1003C0009A95EAF7822B80936800089520E08830A0
:1003D00028F0885021E0873008F022E03091680052
:1003E00081E090E001C0880F2A95EAF78095832389
:1003F00080936800089520E0883030F098EF980FDF
:1004000021E0973008F022E030E0F901EE0FFF1F05
:10041000EA5DFE4F0190F081E02D908143E0220FD4
:10042000331F4A95E1F7482F421B21E030E001C01D
:10043000220F4A95EAF7922B90830C94D20120E088
:10044000883030F098EF980F21E0973008F022E0E4
:1004500030E0F901EE0FFF1FEA5DFE4F0190F081E1
:10046000E02D408153E0220F331F5A95E1F7821BA4
:10047000282F81E090E001C0880F2A95EAF7809547
:100480008423808308958860809381001092850082
:1004900010928400089590938500809384000895BD
:1004A000892BB1F45093890040938800809180009B
:1004B0006295660F660F607C682B6093800092E007
:1004C000222329F080916F00892B80936F0008957B
:1004D00050938B0040938A00809180006295607FEA
:1004E000682B6093800094E0EBCF009749F0019770
:1004F00049F490E28091C100892B8093C100089556
:1005000090E8F8CF90E0F6CFCF93C42F2091C100B0
:1005100028612093C100880F991FFC01E45DFE4F04
:10052000808191819093C5008093C400662321F05F
:1005300081E090E00E947502CC2329F090E080E0F9
:10054000CF910C947502CF910895009751F00197C7
:1005500051F480E29091C100809589238093C1007D
:10056000089580E8F7CF80E0F5CF8093C600089526
:100570008091C60008958091C000881F8827881F39
:1005800008958091C00085FB882780F90895CF9356
:10059000C82F0E94C1028823E1F3C093C600CF9107
:1005A00008958091C00087FFFCCF8091C600089518
:1005B000CF93DF93EC018991811103C0DF91CF913B
:1005C00008950E94C702F7CF0F931F93CF93DF9335
:1005D000D62F8C01C0E0CD1739F00E94D102F8016E
:1005E00081938F01811107C08FEF8C0FDF91CF9125
:0A05F0001F910F910895CF5FEECF29
:1005FA0041E061E085E090E00E94840285E090E0BD
:10060A000E94430221E049E05DE370E060E090E08F
:10061A0080E00E94500262E070E085E091E00E9472
:10062A001F0161E070E08EE091E00E941F0162E02C
:10063A0070E088E091E00E941F0161E070E081E1D2
:10064A0091E00E941F0162E070E08BE091E00E945D
:10065A001F0182E10E94FB0183E10E94FB01789461
:10066A00C3E08895809143018823D9F3809144019E
:10067A008230B8F78C9FC0011124885F9E4F0E9478
:08068A007F0110924301EDCF46
:1006920038010A0000000005020004020005020001
:1006A20002020003230026002900240027002A005A
:1006B200250028002B006B006C006D00A001CF000C
:1006C200670033001900080057656C636F6D652180
:0306D2000A0D000E
:04000003000001F206
:00000001FF
