:100000000C9490000C94B4000C94B4000C94B400C4
:100010000C94B4000C9434000C94B4000C94B40010
:100020000C94B4000C94B4000C94B4000C946A00CA
:100030000C94B4000C94B4000C94B4000C94B40070
:100040000C94B4000C94B4000C94B4000C94B40060
:100050000C94B4000C94B4000C94B4000C94B40050
:100060000C94B4000C94B4001F920F920FB60F9230
:1000700011242F933F934F935F936F937F938F93AD
:100080009F93AF93BF93EF93FF9389E091E00E941A
:100090002E01811104C083E091E00E9416018CE0E2
:1000A00091E00E942E01811104C086E091E00E943F
:1000B0001601FF91EF91BF91AF919F918F917F9129
:1000C0006F915F914F913F912F910F900FBE0F90C5
:1000D0001F9018951F920F920FB60F9211242F9315
:1000E0003F934F935F936F937F938F939F93AF93C0
:1000F000BF93EF93FF9380E091E00E941601FF9180
:10010000EF91BF91AF919F918F917F916F915F918F
:100110004F913F912F910F900FBE0F901F90189508
:1001200044275FEF68E04FBF5DBF6EBF05D011D0C1
:100130000E940C020C949C0011E007E2B1E0A0E0E8
:10014000F4E0E0E802C005900D92A017B107D9F7DE
:100150000895112411E007E2B1E0A7E201C01D9269
:10016000A017B107E1F708950C94B400FC01A08139
:10017000B181AA0FBB1FAB5EBE4F0D90BC91A02DED
:10018000828121E030E001C0220F8A95EAF78C914C
:1001900062307105B9F4282B2C93A081B181AA0F8C
:1001A000BB1FA55EBE4F0D90BC91A02D2C9132813E
:1001B00081E090E001C0880F3A95EAF780958223AC
:1001C0008C930895209528232C936130710529F78D
:1001D000A081B181AA0FBB1FA55EBE4F0D90BC913F
:1001E000A02D8C91928101C0660F9A95EAF7682B39
:1001F0006C930895DC01ED91FC911197EE0FFF1FB8
:10020000E55EFE4F0190F081E02D12962C9181E089
:1002100090E001C0880F2A95EAF79081662319F0D3
:10022000892B8083089580958923FBCFDC01ED9194
:10023000FC911197EE0FFF1FE55EFE4F0190F081DC
:10024000E02D908112968C9121E030E001C0220FC8
:100250008A95EAF7892F822780830895DC01ED9142
:10026000FC911197EE0FFF1FE15FFE4F0190F081AF
:10027000E02D208130E012968C91F90102C0F595B5
:10028000E7958A95E2F7CF0181700895AC01E9E620
:10029000F0E090819A01220F331F01C0660F2A956A
:1002A000EAF7692B60839DB321E030E001C0220FA3
:1002B0004A95EAF7892F822B8DBB08959DB321E0E3
:1002C00030E001C0220F8A95EAF7209529232DBB43
:1002D000089590E0883028F0885091E0873008F049
:1002E00092E08091680021E030E001C0220F9A95F1
:1002F000EAF7822B80936800089520E0883028F088
:10030000885021E0873008F022E03091680081E0D9
:1003100090E001C0880F2A95EAF7809583238093A7
:100320006800089520E0883030F098EF980F21E0C1
:10033000973008F022E030E0F901EE0FFF1FEF5D8B
:10034000FE4F0190F081E02D908143E0220F331F9A
:100350004A95E1F7482F421B21E030E001C0220F0F
:100360004A95EAF7922B90830C94690120E088303B
:1003700030F098EF980F21E0973008F022E030E05D
:10038000F901EE0FFF1FEF5DFE4F0190F081E02DB0
:10039000408153E0220F331F5A95E1F7821B282F2B
:1003A00081E090E001C0880F2A95EAF780958423C8
:1003B0008083089588608093810010928500109258
:1003C0008400089590938500809384000895892B7C
:1003D000B1F4509389004093880080918000629529
:1003E000660F660F607C682B6093800092E022238A
:1003F00029F080916F00892B80936F0008955093AE
:100400008B0040938A00809180006295607F682B0A
:080410006093800094E0EBCF43
:1004180085E090E00E94DA0121E049E05DE370E0C8
:1004280060E090E080E00E94E70162E070E080E038
:1004380091E00E94B60061E070E089E091E00E94DE
:10044800B60062E070E083E091E00E94B60061E0EF
:1004580070E08CE091E00E94B60062E070E086E017
:1004680091E00E94B60082E10E94920183E10E941D
:08047800920178948895FECFF3
:10048000000005020004020005020002020003232E
:100490000026002900240027002A00250028002B20
:0704A000006B006C006D0011
:0400000300000120D8
:00000001FF
