:100000000C94AB000C94CF000C94CF000C94CF0058
:100010000C94CF000C94CF000C94CF000C94CF0024
:100020000C94CF000C94CF000C94CF000C94CF0014
:100030000C94CF000C94CF000C9434000C94CF009F
:100040000C94CF000C94CF000C9443000C946C00E3
:100050000C94CF000C94CF000C94CF000C94CF00E4
:100060000C94CF000C94CF001F920F920FB60F92FA
:1000700011248F9381E080937C018F910F900FBEAC
:100080000F901F9018951F920F920FB60F92112488
:100090002F933F934F935F936F937F938F939F9390
:1000A000AF93BF93EF93FF9381E080937D010E9414
:1000B000840280937E01FF91EF91BF91AF919F9158
:1000C0008F917F916F915F914F913F912F910F9001
:1000D0000FBE0F901F9018951F920F920FB60F92A0
:1000E00011242F933F934F935F936F937F938F933D
:1000F0009F93AF93BF93EF93FF93809111019091E2
:100100001001891704F5E0910E01F0910F0191E0C3
:10011000980F90931101E80FF11D87FDFA958081EA
:100120000E948102FF91EF91BF91AF919F918F91BA
:100130007F916F915F914F913F912F910F900FBEE3
:100140000F901F90189581E08093120181E090E05C
:100150000E947102E7CF44275FEF68E04FBF5DBFA9
:100160006EBF05D011D00E94C9020C94B70011E0F7
:100170000CE7B1E0A0E0F7E0EAE102C005900D92E3
:10018000A017B107D9F70895112411E00FE7B1E0E6
:10019000ACE701C01D92A017B107E1F708950C94D8
:1001A000CF00FC01A081B181AA0FBB1FAE5DBE4F85
:1001B0000D90BC91A02D828121E030E001C0220F82
:1001C0008A95EAF78C9162307105B9F4282B2C934B
:1001D000A081B181AA0FBB1FA85DBE4F0D90BC913D
:1001E000A02D2C91328181E090E001C0880F3A95DA
:1001F000EAF7809582238C930895209528232C93E9
:100200006130710529F7A081B181AA0FBB1FA85DDC
:10021000BE4F0D90BC91A02D8C91928101C0660FB4
:100220009A95EAF7682B6C930895DC01ED91FC91A7
:100230001197EE0FFF1FE85DFE4F0190F081E02D5A
:1002400012962C9181E090E001C0880F2A95EAF780
:100250009081662319F0892B8083089580958923E6
:10026000FBCFDC01ED91FC911197EE0FFF1FE85DD4
:10027000FE4F0190F081E02D908112968C9121E04B
:1002800030E001C0220F8A95EAF7892F8227808308
:100290000895DC01ED91FC911197EE0FFF1FE45ED4
:1002A000FE4F0190F081E02D208130E012968C917C
:1002B000F90102C0F595E7958A95E2F7CF018170C3
:1002C0000895262F8230910529F06530710588F058
:1002D0002EEF260F880F991FFC01EA5AFE4F01905E
:1002E000F081E02D8081887F80838081822B8083D4
:1002F00008956330710570F32FEFEBCF81309105D6
:1003000011F470938500880F991FFC01E05BFE4F8C
:100310000190F081E02D60830895CF93DF93EC018D
:100320006A5C7E4FFB019081C130D10509F0969542
:100330009E01220F331FF901E45AFE4FA081B181C3
:100340008C918C7F8C932A5A3E4FF9016081718188
:10035000FB018081877E80832C91892F8370822B83
:100360008C93208196959695F8E09F9FC00111246B
:10037000822BFB018083BA01CE010E94610170E0F3
:1003800060E0CE01DF91CF910C947E01019721F4C2
:1003900070938700609386000895660F771F813001
:1003A000910539F4FB01EE5CFE4F0190F081E02DE8
:1003B0005083625D7E4F880F991FDB012D913C9128
:1003C000820F931FDC01ED91FC9140830895880F0B
:1003D000991FFC01E25CFE4F0190F081E02D8081CD
:1003E00021E030E001C0220F6A95EAF7822B80837A
:1003F0000895CF92DF92EF92FF920F93CF937C01FB
:100400006B01C42FA9010E94CD01C295CD28D9F45A
:10041000CC0FCC0FC07C61E070E0F701EE0FFF1F46
:10042000E45AFE4F0190F081E02D8081C82BC083FB
:10043000002369F0C701CF910F91FF90EF90DF90FB
:10044000CF900C94E701C07F62E070E0E6CFCF91DF
:100450000F91FF90EF90DF90CF900895880F991F34
:10046000FC01E25CFE4F0190F081E02D208181E0F3
:1004700090E001C0880F6A95EAF780958223808317
:100480000895009749F0019749F490E28091C100E6
:10049000892B8093C100089590E8F8CF90E0F6CFC3
:1004A000CF93C42F2091C10028612093C100880FF1
:1004B000991FFC01EE59FE4F808191819093C500F8
:1004C0008093C400662321F081E090E00E94410205
:1004D000CC2329F090E080E0CF910C944102CF91A1
:1004E0000895009751F0019751F480E29091C10076
:1004F000809589238093C100089580E8F7CF80E03C
:10050000F5CF8093C60008958091C600089580912C
:10051000C000881F8827881F08958091C00085FB30
:10052000882780F90895CF93C82F0E948D028823D1
:10053000E1F3C093C600CF9108958091C00087FF7A
:10054000FCCF8091C6000895CF93DF93EC01899191
:10055000811103C0DF91CF9108950E949302F7CFDC
:100560000F931F93CF93DF93D62F8C01C0E0CD174D
:1005700039F00E949D02F80181938F01811107C01B
:100580008FEF8C0FDF91CF911F910F910895CF5F67
:02059000EECFAC
:1005920041E061E085E090E00E94500262E070E09C
:1005A20086E191E00E94D10062E070E089E191E091
:1005B2000E94D10062E070E083E191E00E94D100EC
:1005C20047E050E070E060E090E080E00E948D0142
:1005D20001E02EE030E050E040E070E060E090E0CA
:1005E20080E00E94F90142E050E061E070E081E0C9
:1005F20090E00E948D0100E027EE33E042E050E0FF
:1006020070E060E081E090E00E94F9016FE37CE934
:1006120081E090E00E94C60150E040E070E060E0BE
:1006220082E090E00E948D0130E020E041E050E065
:1006320061E070E082E090E00E94F9017894C7EEF8
:10064200D3E0E12CF12CD0907D01DD2001F110925C
:100652007D0110917E018FE9810F8730C0F467E040
:1006620070E082E090E00E946101812F8156990B37
:10067200FC01EE0FFF1FE050FF4F4081518161E00E
:1006820070E082E090E00E94CD01FD2C00E010912C
:100692007C01112351F1FF2051F162E070E089E108
:1006A20091E00E94D10061E083E191E00E94150196
:1006B2000F5F063939F470E060E082E090E00E945A
:1006C2006101F12CEE20F9F02196C73893E1D907A8
:1006D20018F0C7E8D3E1E12CAE0170E060E081E000
:1006E20090E00E94CD0110927C018895ACCF60E031
:1006F20083E191E00E94150170E060E089E191E000
:100702000E94D100DFCF2197C83E83E0D80720F7AF
:08071200E12EC7EED3E0E0CFB9
:10071A0022001E003A0034002E002B0026006E0133
:10072A000D0000000005000001020003230026005E
:10073A002900240027002A00250028002B004A014E
:10074A00440189008B00040E3500360037006E0024
:10075A006F00700048008A00B30047008800B400A8
:10076A0046008400B20045008100B10044008000C8
:10077A00B000A001CF0067003300190008005057ED
:0C078A004D20436F6E74726F6C0A0D00FE
:0400000300000156A2
:00000001FF
