:100000000C9435010C9459010C9459010C9459012C
:100010000C9459010C9459010C9459010C945901F8
:100020000C9459010C9459010C9459010C945901E8
:100030000C9459010C9459010C9459010C945901D8
:100040000C9459010C9459010C9459010C945901C8
:100050000C9459010C9459010C9459010C945901B8
:100060000C9459010C9459010F931F93CF938C0159
:10007000C62F86E291E00E94B103C8010E94B1033D
:1000800088E291E00E94B10340E165EE71E08C2FBF
:1000900090E00E94AF0485EE91E00E94B10387EDED
:1000A00091E0CF911F910F910C94B10323E0AC012B
:1000B00060E088E60E94CC028F3F31F0682F8EE22C
:1000C00091E00E943400FFCF089523E0AC0160E08E
:1000D00088E60E94FF028F3F31F0682F86E491E0AE
:1000E0000E943400FFCF0895FC0180811F928F93FE
:1000F00081811F928F9382818F701F928F938DE5E4
:1001000091E09F938F931F928BE08F938AED91E004
:100110009F938F930E94D4048DB79EB70C960FB611
:10012000F8949EBF0FBE8DBF8AED91E00C94B10391
:10013000CF93DF93CDB7DEB7C756D1090FB6F8948A
:10014000DEBF0FBECDBF40E060E085E090E00E94E2
:100150005D0360E090E080E00E940A02F894CE0126
:1001600001967C018E010B591F4F68019FEFC91A40
:10017000D90A580182E0A80EB11C8BE7882E81E0D5
:10018000982E84E791E00E94B10364E6C7010E94C3
:10019000DD03782E67E771E0C7010E94A604892B72
:1001A000E9F464E6C7010E94DD0387ED91E00E9457
:1001B000B1031F930F93DF92CF92BF92AF929F92A2
:1001C0008F92FF92EF920E940405C8010E94560090
:1001D0000FB6F894DEBF0FBECDBFD3CF60E971E09C
:1001E000C7010E94A604892B59F487ED91E00E9473
:1001F000B103C8010E946500C8010E947400C1CF0C
:1002000064E971E0C7010E94A604892B59F443E018
:10021000B80190E080E00E9493018AE991E00E9499
:10022000B103AFCF6AEA71E0C7010E94A604892B2F
:1002300049F443E0B80190E080E00E94BD018FEAFC
:1002400091E0EDCF6FEB71E0C7010E94A604892B0E
:1002500029F487ED91E00E94B103CECF87ED91E0C4
:100260007720E9F285EC91E0DACF44275FEF68E090
:100270004FBF5DBF6EBF05D011D00E9498000C9497
:10028000410111E00AEDB1E0A0E0F5E1ECEE02C0C1
:1002900005900D92A017B107D9F70895112411E028
:1002A00006EFB1E0AAED01C01D92A017B107E1F77A
:1002B00008950C945901FB9A0895FB9808959FB3F3
:1002C0009F7C9FBB9FB38295807F892B8FBB0895B6
:1002D000CF93C62F0E945F01CC2319F0CF910C94CD
:1002E0005B01CF910C945D0192BD81BD60BDFA9A16
:1002F000F99A089592BD81BDF89A80B508958FB39B
:100300008695817008951F93CF93DF93EC01162F8C
:100310000E947F018111FCCF612FCE01DF91CF912F
:100320001F910C947401EF92FF920F931F93CF9340
:10033000DF938B01040F111DEB017C01E61AF70A14
:10034000C7018C0F9D1FC017D10739F4DF91CF91E2
:100350001F910F91FF90EF90089569910E94830182
:10036000EFCFCF93DF93EC010E947F018111FCCF8F
:10037000CE01DF91CF910C947A01EF92FF920F930F
:100380001F93CF93DF938B01040F111DEB017C01B1
:10039000E61AF70AC7018C0F9D1FC017D10739F461
:1003A000DF91CF911F910F91FF90EF9008950E94E0
:1003B000B1018993EFCFECEBF0E080818460808322
:1003C0000895ECEBF0E080818B7F80830895ECEB67
:1003D000F0E080818064808308958091BC00881F54
:1003E0008827881F08958091F50184688093BC0058
:1003F000089581E08093F501ECEBF0E0808181606D
:10040000808308951092F501ECEBF0E080818E7FFF
:1004100080830895CF93C62F80509F4FFC01808129
:100420008093B80061E070E085E091E00E941604DE
:1004300061E070E082E091E00E941604CC2329F094
:100440000E94F901CF910C94DB010E940202FACFC5
:100450008091B900887F08958091F501846A809326
:10046000BC0008958091F50184698093BC000895D3
:100470008093BB000C94F3018091BB0008950E940F
:100480002C028091BC0087FFFCCF8091B900887F4F
:10049000883011F0803109F48FEF08950E94320204
:1004A0008091BC0084FDFCCF8091B900887F883F9B
:1004B00009F48FEF08959091BC0097FFFCCF8093D3
:1004C000BB000E94F3018091BC0087FFFCCF8091AC
:1004D000B900887F883121F0803411F0883209F426
:1004E0008FEF08950F931F93CF938C01C62F0E9417
:1004F000F301C1110E94E7018091BC0087FFFCCF8E
:100500008091BB00F80180838091B900887FCC2363
:1005100021F0803521F48FEF02C08835E1F3CF91CF
:100520001F910F910895CF93DF93D82FC62F0E946C
:100530003F028F3F79F48D2F880F0E945B028F3F1F
:1005400049F48C2F0E945B028F3F21F4DF91CF9101
:100550000C944E02DF91CF9108950F931F93CF9388
:10056000C82F8B010E943F028F3F91F48C2F880F80
:1005700081600E945B028F3F59F460E0C8010E94D5
:1005800072028F3F29F4CF911F910F910C944E026C
:10059000CF911F910F910895FF920F931F93CF93C7
:1005A000DF93D82FC62FF42E152F022F0E943F0263
:1005B0008F3FF9F48D2F880F0E945B028F3FC9F4A3
:1005C0008C2F0E945B028F3FA1F4CF2DD12F0C0FF7
:1005D0001D2F111D0C171D0739F4DF91CF911F91AD
:1005E0000F91FF900C944E0289910E945B028F3F05
:1005F00089F3DF91CF911F910F91FF900895CF92D2
:10060000DF92EF92FF920F931F93CF93DF93C82F48
:10061000D62F7A01022F0E943F028F3FB1F5CC0FF7
:100620008C2F0E945B028F3F81F58D2F0E945B0211
:100630008F3F59F50E943F028F3F39F58C2F816023
:100640000E945B028F3F09F510E0D0E0C0E0680136
:1006500081E0C81AD1080C171D0751F4DF91CF9122
:100660001F910F91FF90EF90DF90CF900C944E026E
:1006700061E0CC16DD0609F460E0C7018C0F9D1F18
:100680000E94720221968F3F31F3DF91CF911F912B
:100690000F91FF90EF90DF90CF900895009749F071
:1006A000019749F490E28091C100892B8093C100A9
:1006B000089590E8F8CF90E0F6CFCF93C42F209123
:1006C000C10028612093C100880F991FFC01E85FD9
:1006D000FE4F808191819093C5008093C400662372
:1006E00021F081E090E00E944E03CC2329F090E0BD
:1006F00080E0CF910C944E03CF910895009751F074
:10070000019751F480E29091C100809589238093F4
:10071000C100089580E8F7CF80E0F5CF8093C60050
:1007200008958091C60008958091C000881F882791
:10073000881F08958091C00085FB882780F908955F
:10074000CF93C82F0E949A038823E1F3C093C60079
:10075000CF9108958091C00087FFFCCF8091C600A3
:1007600008950F931F93CF938C01C0E0F801EC0F15
:10077000F11D8081811104C0CF911F910F910895C7
:100780000E94A003CF5FF2CF0F931F93CF93DF930D
:10079000D62F8C01C0E0CD1739F00E94AA03F801D2
:1007A00081938F01811107C08FEF8C0FDF91CF9163
:1007B0001F910F910895CF5FEECFEF92FF920F93AD
:1007C0001F93CF93DF937C01D62FC0E087010C0FDE
:1007D000111DCD1768F40E94AA03F8018083982F99
:1007E0009F7D21F08A3011F08D3071F40E94A003BA
:1007F000F8011082C111C1508C2FDF91CF911F9150
:100800000F91FF90EF900895CC2361F0883051F460
:10081000C1500E94A00380E20E94A00388E00E94D1
:10082000A003D4CF0E94A003CF5FD0CFFC01A08152
:10083000B181AA0FBB1FA65EBE4F0D90BC91A02D2B
:10084000828121E030E001C0220F8A95EAF78C9185
:1008500062307105B9F4282B2C93A081B181AA0FC5
:10086000BB1FA05EBE4F0D90BC91A02D2C9132817C
:1008700081E090E001C0880F3A95EAF780958223E5
:100880008C930895209528232C936130710529F7C6
:10089000A081B181AA0FBB1FA05EBE4F0D90BC917D
:1008A000A02D8C91928101C0660F9A95EAF7682B72
:1008B0006C930895DC01ED91FC911197EE0FFF1FF1
:1008C000E05EFE4F0190F081E02D12962C9181E0C8
:1008D00090E001C0880F2A95EAF79081662319F00D
:1008E000892B8083089580958923FBCFDC01ED91CE
:1008F000FC911197EE0FFF1FE05EFE4F0190F0811B
:10090000E02D908112968C9121E030E001C0220F01
:100910008A95EAF7892F822780830895DC01ED917B
:10092000FC911197EE0FFF1FEC5EFE4F0190F081DE
:10093000E02D208130E012968C91F90102C0F595EE
:10094000E7958A95E2F7CF0181700895FB01DC01FC
:100950008D91019080190110D9F3990B0895BB274F
:100960004A3031F4992322F4BDE2909581959F4F4E
:100970000C94BB04BB27FB015527AA27880F991F9E
:10098000AA1FA41710F0A41B83955051B9F7A05DBE
:10099000AA3308F0A95DA193009779F7B111B1933B
:1009A0001192CB010C94B109AEE0B0E0EAEDF4E0B5
:1009B0000C94B40A0D891E898F89988D26E02C83AA
:1009C0001A83098397FF02C080E090E801979E8315
:1009D0008D83AE01455E5F4F698D7A8DCE010196A4
:1009E0000E941D054D815E8157FD0AC02F8138850B
:1009F000421753070CF49A01020F131FF8011082DB
:100A00002E96E4E00C94D00AAEE0B0E0EAE0F5E027
:100A10000C94B60A85E08C838B899C899A838983A0
:100A2000AE01495E5F4F6D897E89CE0101960E94BD
:100A300082082E96E2E00C94D20AABE0B0E0E3E24A
:100A4000F5E00C94A60A7C013B018A01FC011782A7
:100A50001682838181FFC8C1CE0101965C01F70136
:100A60009381F30193FD859193FF81913F01882349
:100A700009F453C1853239F493FD859193FF819137
:100A80003F01853229F4B70190E00E94FD09E7CFCC
:100A9000912C212C312CFFE1F31538F08B3211F120
:100AA00090F4803209F1833229F137FC3CC020ED0B
:100AB000280F2A3050F536FE20C08AE0989E200D7F
:100AC0001124922E06C08D3291F0803371F7689414
:100AD00030F8F30193FD859193FF81913F018111DE
:100AE000DACF21C0689431F8689432F8F2CF689474
:100AF00033F8EFCF689434F8ECCFEAE02E9E200D67
:100B00001124222E689435F8E4CF8E3229F436FC75
:100B100004C1689436F8DDCF8C3619F4689437F840
:100B2000D8CF8836B1F2982F9F7D95549330E0F05E
:100B30008336A1F18337C1F1833509F063C0280101
:100B4000F2E04F0E511CF801C080D180692D70E099
:100B500036FC02C06FEF7FEFC6010E949B094C017B
:100B6000689437F882010AC00C5F1F4FFFE3F983D6
:100B700088248394912C6501E89437F833FE2DC0C6
:100B8000522C8114910471F5552009F468CFB701F6
:100B900080E290E00E94FD095A94F6CFF80180812E
:100BA00089830E5F1F4FE4CF2801F2E04F0E511CE6
:100BB000F801C080D180692D70E036FC02C06FEF73
:100BC0007FEFC6010E94A6094C018201D5CFB70173
:100BD00080E290E00E94FD092A942814190409F08B
:100BE000B0F7CECFF60137FC859137FE81916F01CA
:100BF000B70190E00E94FD0951105A94F1E08F1A5C
:100C00009108BFCF843619F0893609F077C0F80112
:100C100037FE6BC060817181828193810C5F1F4FB1
:100C2000F32DFF763F2E97FF09C090958095709524
:100C300061957F4F8F4F9F4F689437F82AE030E0DF
:100C4000A5010E94450AC82ECA188C2C432C36FEDA
:100C50000CC0E89440F8C91440F434FE05C032FCDE
:100C600003C0F32DFE7E4F2E892C44FE95C0FE015D
:100C7000EC0DF11D8081803309F087C0242D297E81
:100C8000422E842D8870582E43FC95C040FE8FC0A4
:100C90009C2C821418F42C0C922C981844FE91C0B1
:100CA000B70180E390E00E94FD0942FE09C088E799
:100CB00090E041FE02C088E590E0B7010E94FD0986
:100CC000C91408F48AC0CA94D12C9FEFC91AD90A52
:100CD000CA0CDB1CF60182916F01B70190E00E9403
:100CE000FD09AC14BD04B1F74FCF60817181072EAF
:100CF000000C880B990B0E5F1F4F92CFD32CE894FA
:100D0000D4F82AE030E0853739F1232D297FD22E1F
:100D10008F3601F148F48835A9F0F7018681978173
:100D20002B96E2E10C94C20A803749F08837A9F784
:100D3000D4FE02C06894D2F820E130E00DC068947F
:100D4000D4F8F6CF34FE03C0822F8660D82E20E17F
:100D500032E002C028E030E0F801D7FE0FC0608129
:100D60007181828193810C5F1F4FA5010E94450A0A
:100D7000C82ECA183D2CE89437F867CF608171817E
:100D800090E080E00E5F1F4FF0CF42FC02C08394E2
:100D900078CF8394839475CF842D867809F471CFAE
:100DA000F6CFB70180E290E00E94FD09839482149F
:100DB000C0F3512C73CF522C5818821408F46ECF04
:100DC000F8CF842D867809F47BCF8BE241FE80E258
:100DD00047FC8DE2B70190E071CFB70180E390E06E
:100DE0000E94FD099A946CCF8FEF9FEF99CF20FD61
:100DF00009C0FC0123FD05C022FF02C0738362838A
:100E000051834083089544FD17C046FD1DC0DB019A
:100E1000FC01AA0FBB1FEE1FFF1F1094D1F76A0F32
:100E20007B1F8E1F9F1F660F771F881F991F620FE2
:100E3000711D811D911D089533E0660F771F881F76
:100E4000991F3150D1F7F3CF34E0F7CF0F931F93B1
:100E5000CF93DF938C01C8010E94C109EC0197FD7B
:100E600008C00E948709892BB1F7B801CE010E9402
:100E70002D0ACE01DF91CF911F910F9108958F928E
:100E80009F92AF92BF92EF92FF920F931F93CF93D7
:100E9000DF938C01D62F7A01B22E0E94C1099C01EA
:100EA00033272B32310529F02D323105A9F468940E
:100EB000B7F8D15061F480E0DF91CF911F910F918D
:100EC000FF90EF90BF90AF909F908F900895C801D2
:100ED0000E94C10997FDEFCFCB2DCD7F2B2D207325
:100EE000F9F48033E9F4AA24AA94AD0E89F0C8017C
:100EF0000E94C10997FD0CC0282F2F7D283561F471
:100F0000C264D25029F0C8010E94C10997FF08C0ED
:100F1000812C912C54011BC0B6FE2BC0C260DA2D6F
:100F2000812C912C540120ED280F283028F1C4FD8C
:100F300009C02A3008F1C6FF05C02F7D3FEE320FF1
:100F40003630C8F0B8010E942D0AC1FFB4CFC7FFE8
:100F500008C0B094A09490948094811C911CA11C12
:100F6000B11C2C2FB501A401C7010E94F70681E036
:100F7000A3CFC261D4CF27504C2FC501B4010E942A
:100F800003074B015C01C260D15009F3C8010E9404
:100F9000C10997FFC8CFD9CFA0E2B0E0E2EDF7E0FA
:100FA0000C94AB0A5C01962E7A01CE0101966C017D
:100FB00080E2F60111928A95E9F7F501B381890182
:100FC00030E020E0712C812CA0E041E050E0F801FD
:100FD000B3FD8591B3FF8191982F8F01811107C0D7
:100FE00010E000E0C801A096EDE00C94C70A8E3531
:100FF00019F42115310541F1A21713064CF48D3572
:1010000049F18D3229F4811006C0882483941DC0D3
:10101000882009F464C0E92FE695E695E695EC0D85
:10102000FD2DF11D892F8770BA0101C0660F8A95C9
:10103000EAF78081682B6083791651F0971510F4D8
:101040009F5FE9CF9150E7CFA1E02F5F3F4FBFCF28
:10105000812CFBCF882019F08E8180628E83AA2399
:1010600059F0F6019E012F5D3F4F8081809580836E
:101070003196E217F307C9F788248394C5010E94CB
:10108000C10997FD16C0E82FE695E695E695EC0DAB
:10109000FD2DF11D208130E0AC014770552702C0C5
:1010A000359527954A95E2F720FD06C0B5010E94C7
:1010B0002D0A882069F094CFE114F10429F0F7019A
:1010C0008083C70101967C019A94812C9110D6CF20
:1010D000E114F10409F486CFF701108283CFE82FE1
:1010E000E695E695E695EC0DFD2DF11D982F977090
:1010F000BA0101C0660F9A95EAF79081692B608367
:10110000782EA3CFB0E0A0E0E8E8F8E00C94A90ABC
:101110006C01EB015A01FC0117821682512CF60179
:10112000E380FE01E3FC8591E3FE8191182FEF013E
:101130008823E9F090E00E948709892B21F0C601FD
:101140000E942607ECCF153241F4FE01E3FC159115
:10115000E3FE1191EF01153269F4C6010E94C10945
:1011600097FD8EC01817D9F2B6010E942D0A852D61
:1011700090E08AC000E01A3231F4E3FC1591E3FEFE
:101180001191EF0101E0F12C20ED210F2A3048F1FF
:1011900001FF37C0FF2059F31836B1F11C3609F4AE
:1011A0003DC0112321F3612F70E08AEB95E10E948D
:1011B0009009892BE1F2912C812C00FD06C0F501EC
:1011C00080809180C50102965C011E3679F5F6019A
:1011D0004681578170E060E0202FC4010E94F7062D
:1011E0009ECF02606F2D70E090E080E040E20E94B0
:1011F0000307F62EFE01E3FC1591E3FE1191EF01CA
:10120000C3CFFF24FA94C8CFFE01E3FC1591E3FE9F
:101210001191EF01183609F0C4CF08600460FE0197
:10122000E3FC1591E3FE1191EF01BBCF1336C1F43E
:1012300001FD02C0FF24F394C6010E94C10997FD7D
:101240001FC08114910429F0F4018083C401019628
:101250004C01FA94F110F0CF00FD61CF53945FCFB1
:101260001B35B9F49E01A4016F2DC6010E94CC0765
:10127000EC01892B89F7F6018381807309F477CF1C
:101280008FEF9FEF511073CFCDB7DEB7EFE00C9427
:10129000C50AC6010E94260797FDF2CF1F36A9F1A5
:1012A00030F4143641F0193639F0006405C01337B4
:1012B000B9F01537D1F70062202FA4016F2DC601B8
:1012C0000E943F078111C8CFD6CF8114910429F025
:1012D000F4016082C40101964C01FA94FF2071F080
:1012E000C6010E94C1093C0197FD08C00E94870900
:1012F000892B59F3B601C3010E942D0A8114910470
:1013000009F4AACFF4011082A7CF0061D5CF9111C3
:101310000C94A30A803219F089508550C8F70895BB
:10132000FC010590061621F00020D9F7C0010895B0
:101330003197CF010895FC01059061507040011074
:10134000D8F7809590958E0F9F1F0895FC016150EE
:10135000704001900110D8F7809590958E0F9F1FD7
:101360000895DC01FC01672F71917723E1F7329733
:1013700004C07C916D9370836291AE17BF07C8F370
:101380000895CF93DF93EC012B8120FF1AC026FF35
:101390000CC02F7B2B838E819F8101969F838E8330
:1013A0008A8190E0DF91CF91089522FF18C0E881F3
:1013B000F9818081082E000C990B009729F4206296
:1013C0002B838FEF9FEFEECF3196F983E8832E8149
:1013D0003F812F5F3F4F3F832E839927E3CFEA85DD
:1013E000FB85099597FFF3CF2B81019621F080E2D1
:1013F000822B8B83E6CF80E1FBCF0F931F93CF939C
:10140000DF93182F092FEB018B8181FD09C01FEF9E
:101410000FEF812F902FDF91CF911F910F910895A2
:1014200082FF14C02E813F818C819D81281739074E
:101430003CF4E881F981CF01019699838883108378
:101440008E819F8101969F838E83E3CFE885F98506
:10145000812F0995892BA1F3DACFFB01238120FF8E
:1014600011C026FD0FC08F3F980771F082832F7D3A
:1014700020642383268137812150310937832683D5
:10148000992708958FEF9FEF0895FA01AA27283032
:1014900051F1203181F1E8946F936E7F6E5F7F4F41
:1014A0008F4F9F4FAF4FB1E03ED0B4E03CD0670FBD
:1014B000781F891F9A1FA11D680F791F8A1F911D10
:1014C000A11D6A0F711D811D911DA11D20D009F460
:1014D00068943F912AE0269F11243019305D3193A2
:1014E000DEF6CF010895462F4770405D4193B3E08B
:1014F0000FD0C9F7F6CF462F4F70405D4A3318F032
:10150000495D31FD4052419302D0A9F7EACFB4E0E2
:10151000A6959795879577956795BA95C9F700979A
:101520006105710508959B01AC010A2E069457953B
:10153000479537952795BA95C9F7620F731F841F92
:10154000951FA01D08959927882708952F923F92EF
:101550004F925F926F927F928F929F92AF92BF92C3
:10156000CF92DF92EF92FF920F931F93CF93DF936F
:10157000CDB7DEB7CA1BDB0B0FB6F894DEBF0FBECC
:10158000CDBF09942A88398848885F846E847D8419
:101590008C849B84AA84B984C884DF80EE80FD801B
:1015A0000C811B81AA81B981CE0FD11D0FB6F89491
:1015B000DEBF0FBECDBFED0108956364696E6F702D
:1015C000737578585B0011E0A0E0B1E0ECEEF5E156
:1015D00002C005900D92AA3DB107D9F721E0AAED0E
:0C15E000B1E001C01D92A63FB207E1F788
:1015EC00480C010005010004A001CF006700330086
:1015FC0019000800230026002900240027002A00D7
:10160C00250028002B005B005D3A20307800445305
:10161C00333233312054696D6520577269746520FB
:10162C006572726F72004453333233312054696DDA
:10163C00652052656164206572726F7200253032CC
:10164C006868643A2530326868643A2530326868D4
:10165C00640A0D003E200073657400253032686802
:10166C00643A2530326868643A2530326868640020
:10167C006765740073746F7265000A0D54696D654B
:10168C002073746F7265640A0D006C6F6164000ADC
:10169C000D54696D65206C6F616465640A0D007092
:1016AC0072696E74000A0D496E76616C6964206310
:0A16BC006F6D6D616E64210A0D0070
:040000030000026A8D
:00000001FF
