:100000000C94AB000C94CF000C94CF000C94CF0058
:100010000C94CF000C94CF000C94CF000C94CF0024
:100020000C94CF000C94CF000C94CF000C94CF0014
:100030000C94CF000C94CF000C9434000C94CF009F
:100040000C94CF000C94CF000C9443000C946C00E3
:100050000C94CF000C94CF000C94CF000C94CF00E4
:100060000C94CF000C94CF001F920F920FB60F92FA
:1000700011248F9381E0809382018F910F900FBEA6
:100080000F901F9018951F920F920FB60F92112488
:100090002F933F934F935F936F937F938F939F9390
:1000A000AF93BF93EF93FF9381E0809383010E940E
:1000B000FD0280938401FF91EF91BF91AF919F91D9
:1000C0008F917F916F915F914F913F912F910F9001
:1000D0000FBE0F901F9018951F920F920FB60F92A0
:1000E00011242F933F934F935F936F937F938F933D
:1000F0009F93AF93BF93EF93FF93809103019091F0
:100100000201891704F5E0910001F091010191E0ED
:10011000980F90930301E80FF11D87FDFA958081F8
:100120000E94FA02FF91EF91BF91AF919F918F9141
:100130007F916F915F914F913F912F910F900FBEE3
:100140000F901F90189581E08093040181E090E06A
:100150000E94EA02E7CF44275FEF68E04FBF5DBF30
:100160006EBF05D011D00E9442030C94B70011E07D
:1001700002E8B1E0A0E0F7E0EEE702C005900D92E2
:10018000A017B107D9F70895112411E005E8B1E0EF
:10019000A2E801C01D92A017B107E1F708950C94E1
:1001A000CF000F93CF93DF93EC0150E040E070E07D
:1001B00060E0888199810E9406026A817B8100E06B
:1001C00030E020E041E050E0888199810E94720295
:1001D000DF91CF910F9108950F931F93CF93DF93EA
:1001E000EC018B0162E070E004960E94190167E067
:1001F00070E0888199810E94DA016A817B81A8017F
:1002000088819981DF91CF911F910F910C944602C3
:10021000CF93DF93EC0170E060E0888199810E94C8
:10022000DA0170E060E0CE010496DF91CF910C948A
:100230001901FC01A081B181AA0FBB1FA85DBE4FAF
:100240000D90BC91A02D828121E030E001C0220FF1
:100250008A95EAF78C9162307105B9F4282B2C93BA
:10026000A081B181AA0FBB1FA25DBE4F0D90BC91B2
:10027000A02D2C91328181E090E001C0880F3A9549
:10028000EAF7809582238C930895209528232C9358
:100290006130710529F7A081B181AA0FBB1FA25D52
:1002A000BE4F0D90BC91A02D8C91928101C0660F24
:1002B0009A95EAF7682B6C930895DC01ED91FC9117
:1002C0001197EE0FFF1FE25DFE4F0190F081E02DD0
:1002D00012962C9181E090E001C0880F2A95EAF7F0
:1002E0009081662319F0892B808308958095892356
:1002F000FBCFDC01ED91FC911197EE0FFF1FE25D4A
:10030000FE4F0190F081E02D908112968C9121E0BA
:1003100030E001C0220F8A95EAF7892F8227808377
:100320000895DC01ED91FC911197EE0FFF1FEE5D3A
:10033000FE4F0190F081E02D208130E012968C91EB
:10034000F90102C0F595E7958A95E2F7CF01817032
:100350000895EF92FF920F93CF93DF93EC017B010F
:1003600062E070E002960E94190142E050E061E014
:1003700070E081E090E00E9406026881798100E0EF
:10038000970142E050E081E090E00E9472026FE34A
:100390007CE981E090E0DF91CF910F91FF90EF90A9
:1003A0000C943F02AB01FC016081718181E090E01F
:1003B0000C944602262F8230910529F06530710594
:1003C00088F02EEF260F880F991FFC01E45AFE4F8C
:1003D0000190F081E02D8081887F80838081822B55
:1003E000808308956330710570F32FEFEBCF813078
:1003F000910511F470938500880F991FFC01EA5A4A
:10040000FE4F0190F081E02D60830895CF93DF933C
:10041000EC01645C7E4FFB019081C130D10509F095
:1004200096959E01220F331FF901EE59FE4FA081D0
:10043000B1818C918C7F8C93245A3E4FF90160815D
:100440007181FB018081877E80832C91892F83704D
:10045000822B8C93208196959695F8E09F9FC00102
:100460001124822BFB018083BA01CE010E94DA01A4
:1004700070E060E0CE01DF91CF910C94F70101971D
:1004800021F470938700609386000895660F771FAC
:100490008130910539F4FB01E85CFE4F0190F08159
:1004A000E02D50836C5C7E4F880F991FDB012D91EE
:1004B0003C91820F931FDC01ED91FC9140830895E4
:1004C000880F991FFC01EC5BFE4F0190F081E02D3D
:1004D000808121E030E001C0220F6A95EAF7822B8B
:1004E00080830895CF92DF92EF92FF920F93CF9384
:1004F0007C016B01C42FA9010E944602C295CD2840
:10050000D9F4CC0FCC0FC07C61E070E0F701EE0FA6
:10051000FF1FEE59FE4F0190F081E02D8081C82B26
:10052000C083002369F0C701CF910F91FF90EF9036
:10053000DF90CF900C946002C07F62E070E0E6CF65
:10054000CF910F91FF90EF90DF90CF900895880F9B
:10055000991FFC01EC5BFE4F0190F081E02D2081A2
:1005600081E090E001C0880F6A95EAF780958223C8
:1005700080830895009749F0019749F490E28091B3
:10058000C100892B8093C100089590E8F8CF90E0D6
:10059000F6CFCF93C42F2091C10028612093C100D2
:1005A000880F991FFC01E859FE4F8081918190933B
:1005B000C5008093C400662321F081E090E00E9492
:1005C000BA02CC2329F090E080E0CF910C94BA02DB
:1005D000CF910895009751F0019751F480E29091E6
:1005E000C100809589238093C100089580E8F7CFEA
:1005F00080E0F5CF8093C60008958091C6000895ED
:100600008091C000881F8827881F08958091C000AE
:1006100085FB882780F90895CF93C82F0E94060391
:100620008823E1F3C093C600CF9108958091C00064
:1006300087FFFCCF8091C6000895CF93DF93EC0134
:100640008991811103C0DF91CF9108950E940C031D
:10065000F7CF0F931F93CF93DF93D62F8C01C0E07A
:10066000CD1739F00E941603F80181938F01811193
:1006700007C08FEF8C0FDF91CF911F910F910895DD
:04068000CF5FEECF8B
:1006840041E061E085E090E00E94C90262E070E030
:1006940083E191E00E94190147E050E070E060E0DE
:1006A40090E080E00E94060201E02EE030E050E09D
:1006B40040E070E060E090E080E00E94720267EE4B
:1006C40073E086E191E00E94A9018BE191E00E9430
:1006D400D100789410E0C7EED3E0F12C00E0E09074
:1006E4008301EE20B1F010928301E09184018FE93F
:1006F4008E0F873070F4E156FF0BEE0FFF1FEB5F98
:10070400FE4F608171818BE191E00E94EC000E2D1F
:1007140010E0E0908201EE2029F1002391F061E0E5
:1007240083E191E00E945D011F5F163951F48BE172
:1007340091E00E94080160E083E191E00E945D0184
:1007440000E0FF2089F02196C73883E1D80718F02C
:10075400C7E8D3E1F12CBE0186E191E00E94D20109
:10076400109282018895BBCF2197C83E83E0D807B9
:0A07740090F7FE2CC7EED3E0EECFA5
:10077E0074010D000022001E003A0034002E002BE2
:10078E00002600000005000000000102000100022A
:10079E000003230026002900240027002A0025003C
:1007AE0028002B0050014A0189008B00040E3500F1
:1007BE00360037006E006F00700048008A00B300EC
:1007CE0047008800B40046008400B2004500810056
:1007DE00B10044008000B000A001CF0067003300DC
:1007EE001900080050574D20436F6E74726F6C0ADB
:0207FE000D00EC
:0400000300000156A2
:00000001FF
