:100000000C9434000C943E000C943E000C943E0082
:100010000C943E000C943E000C943E000C943E0068
:100020000C943E000C943E000C943E000C943E0058
:100030000C943E000C943E000C943E000C943E0048
:100040000C943E000C943E000C943E000C943E0038
:100050000C943E000C943E000C943E000C943E0028
:100060000C943E000C943E0011241FBECFEFD8E04C
:10007000DEBFCDBF0E944F000C945B000C940000CB
:1000800030E020E0281739070CF0089548EB5BE0DA
:10009000000041505109E1F72F5F3F4FF3CF259A00
:1000A0002D9A84E690E00E9440002D9884E690E02E
:0A00B0000E944000F5CFF894FFCF46
:00000001FF
