:100000000C948F000C9443000C94B3000C94B30038
:100010000C94B3000C9469000C94B3000C94B300DE
:100020000C94B3000C94B3000C94B3000C94B30084
:100030000C94B3000C94B3000C94B3000C94B30074
:100040000C94B3000C94B3000C94B3000C94B30064
:100050000C94B3000C94B3000C94B3000C94B30054
:100060000C94B3000C94B30030E020E0281739075B
:100070000CF0089548EB5BE0000041505109E1F7B6
:100080002F5F3F4FF3CF1F920F920FB60F921124A5
:100090002F933F934F935F936F937F938F939F9390
:1000A000AF93BF93EF93FF9380E091E00E9415011F
:1000B000FF91EF91BF91AF919F918F917F916F9140
:1000C0005F914F913F912F910F900FBE0F901F9016
:1000D00018951F920F920FB60F9211242F933F93F2
:1000E0004F935F936F937F938F939F93AF93BF9340
:1000F000EF93FF9383E091E00E941501FF91EF9150
:10010000BF91AF919F918F917F916F915F914F912F
:100110003F912F910F900FBE0F901F90189544277D
:100120005FEF68E04FBF5DBF6EBF05D011D00E948A
:10013000D8010C949B0011E004E2B1E0A0E0F3E0F0
:10014000EEEF02C005900D92A017B107D9F7089500
:10015000112411E004E2B1E0A4E201C01D92A01755
:10016000B107E1F708950C94B300FC01A081B181BF
:10017000AA0FBB1FAE5EBE4F0D90BC91A02D828119
:1001800021E030E001C0220F8A95EAF78C916230BD
:100190007105B9F4282B2C93A081B181AA0FBB1F44
:1001A000A85EBE4F0D90BC91A02D2C91328181E0B4
:1001B00090E001C0880F3A95EAF7809582238C93EE
:1001C0000895209528232C936130710529F7A0818B
:1001D000B181AA0FBB1FA85EBE4F0D90BC91A02D90
:1001E0008C91928101C0660F9A95EAF7682B6C9307
:1001F0000895DC01ED91FC911197EE0FFF1FE85E71
:10020000FE4F0190F081E02D12962C9181E090E05C
:1002100001C0880F2A95EAF79081662319F0892B8F
:100220008083089580958923FBCFDC01ED91FC91BB
:100230001197EE0FFF1FE85EFE4F0190F081E02D59
:10024000908112968C9121E030E001C0220F8A95B6
:10025000EAF7892F822780830895DC01ED91FC91D4
:100260001197EE0FFF1FE45FFE4F0190F081E02D2C
:10027000208130E012968C91F90102C0F595E79546
:100280008A95E2F7CF0181700895AC01E9E6F0E0CC
:1002900090819A01220F331F01C0660F2A95EAF759
:1002A000692B60839DB321E030E001C0220F4A95A5
:1002B000EAF7892F822B8DBB08959DB321E030E0B2
:1002C00001C0220F8A95EAF7209529232DBB0895B6
:1002D00090E0883028F0885091E0873008F092E074
:1002E0008091680021E030E001C0220F9A95EAF782
:1002F000822B80936800089520E0883028F0885091
:1003000021E0873008F022E03091680081E090E041
:1003100001C0880F2A95EAF78095832380936800AF
:10032000089520E0883030F098EF980F21E0973062
:1003300008F022E030E0F901EE0FFF1FE25EFE4F11
:100340000190F081E02D908143E0220F331F4A9508
:10035000E1F7821B21E030E001C0220F8A95EAF725
:10036000892F822B8083089520E0883030F098EF29
:10037000980F21E0973008F022E030E0F901EE0F0D
:10038000FF1FE25EFE4F0190F081E02D408153E0BF
:10039000220F331F5A95E1F7821B282F81E090E04E
:1003A00001C0880F2A95EAF78095842380830895F9
:1003B00061E070E086E091E00E94B50062E070E0EC
:1003C00080E091E00E94B50061E070E089E091E09A
:1003D0000E94B50062E070E083E091E00E94B50009
:1003E00062E070E090E080E00E94450183E10E94BD
:0E03F000680183E10E94910178948895FECF08
:1003FE000200040200050200020200032300260090
:10040E002900240027002A00250028002B006B005D
:04041E006C006D0001
:040000030000011EDA
:00000001FF
