:100000000C9456000C947A000C947A000C947A00AC
:100010000C947A000C947A000C947A000C947A0078
:100020000C947A000C947A000C947A000C947A0068
:100030000C947A000C947A000C947A000C947A0058
:100040000C947A000C947A000C947A000C947A0048
:100050000C947A000C9434000C947A000C947A007E
:100060000C947A000C947A001F920F920FB60F92A4
:1000700011248F939F9380914F019091500101968D
:100080008032910559F09093500180934F019F91D8
:100090008F910F900FBE0F901F90189510925001E6
:1000A00010924F0181E080934E01F1CF44275FEF22
:1000B00068E04FBF5DBF6EBF05D011D00E94C40283
:1000C0000C94620011E00EE4B1E0A0E0F5E0E2EF94
:1000D00002C005900D92A017B107D9F70895112419
:1000E00011E001E5B1E0AEE401C01D92A017B10737
:1000F000E1F708950C947A00EAE7F0E080818068E7
:1001000080830895EAE7F0E080818F778083089507
:10011000EAE7F0E08081886080830895EAE7F0E014
:100120008081877F80830895ECE7F0E09081907F65
:1001300090839081892B80830895ECE7F0E0908193
:100140009F73908390818295880F880F807C892B84
:1001500080830895EAE7F0E09081987F9083908112
:10016000892B808308958830910531F480917A003D
:100170008F7D80937A00089590917A009062909399
:100180007A0090917B00987F90937B0090917B0008
:10019000892B80937B000895FF920F931F93CF9339
:1001A000DF938B01EA01F22E0E949D00FF2079F07F
:1001B0000E948800C8010E94B300CE010E94AA00DC
:1001C000DF91CF911F910F91FF900C947C000E94C2
:1001D0008E00F0CFEAE7F0E08081806480830895AC
:1001E0000E9494000C94EA00EAE7F0E0808190819C
:1001F00090619083829581700895809178009091AC
:1002000079000895EEE7F0E0908121E030E001C050
:10021000220F8A95EAF72095292320830895EEE797
:10022000F0E0908121E030E001C0220F8A95EAF7EA
:10023000922B908308950E94F0000E94F40088237E
:10024000E1F30C94FD00FC01A081B181AA0FBB1F5A
:10025000A25FBE4F0D90BC91A02D828121E030E0C5
:1002600001C0220F8A95EAF78C9162307105B9F4CA
:10027000282B2C93A081B181AA0FBB1FAC5EBE4F6F
:100280000D90BC91A02D2C91328181E090E001C0B5
:10029000880F3A95EAF7809582238C9308952095EC
:1002A00028232C936130710529F7A081B181AA0F11
:1002B000BB1FAC5EBE4F0D90BC91A02D8C91928166
:1002C00001C0660F9A95EAF7682B6C930895DC01DC
:1002D000ED91FC911197EE0FFF1FEC5EFE4F019028
:1002E000F081E02D12962C9181E090E001C0880F02
:1002F0002A95EAF79081662319F0892B8083089567
:1003000080958923FBCFDC01ED91FC911197EE0FD5
:10031000FF1FEC5EFE4F0190F081E02D9081129660
:100320008C9121E030E001C0220F8A95EAF7892FF5
:10033000822780830895DC01ED91FC911197EE0FE7
:10034000FF1FE85FFE4F0190F081E02D208130E03B
:1003500012968C91F90102C0F595E7958A95E2F71E
:10036000CF0181700895EF92FF920F93CF93DF93A7
:10037000EC017B0162E070E002960E94230142E002
:1003800050E061E070E081E090E00E94100268813E
:10039000798100E0970142E050E081E090E00E9426
:1003A0007C026FE37CE981E090E0DF91CF910F91D7
:1003B000FF90EF900C944902AB01FC0160817181C8
:1003C00081E090E00C945002262F8230910529F0B4
:1003D0006530710588F02EEF260F880F991FFC01FC
:1003E000EE5BFE4F0190F081E02D8081887F80835D
:1003F0008081822B808308956330710570F32FEF25
:10040000EBCF8130910511F470938500880F991F0F
:10041000FC01E45CFE4F0190F081E02D60830895C3
:10042000CF93DF93EC016E5D7E4FFB019081C13075
:10043000D10509F096959E01220F331FF901E85B63
:10044000FE4FA081B1818C918C7F8C932E5B3E4FAF
:10045000F90160817181FB018081877E80832C910D
:10046000892F8370822B8C93208196959695F8E046
:100470009F9FC0011124822BFB018083BA01CE0112
:100480000E94E40170E060E0CE01DF91CF910C9416
:100490000102019721F4709387006093860008950C
:1004A000660F771F8130910539F4FB01E25EFE4F44
:1004B0000190F081E02D5083665E7E4F880F991F7A
:1004C000DB012D913C91820F931FDC01ED91FC919A
:1004D00040830895880F991FFC01E65DFE4F01904F
:1004E000F081E02D808121E030E001C0220F6A958B
:1004F000EAF7822B80830895CF92DF92EF92FF92EA
:100500000F93CF937C016B01C42FA9010E9450026D
:10051000C295CD28D9F4CC0FCC0FC07C61E070E03F
:10052000F701EE0FFF1FE85BFE4F0190F081E02D19
:100530008081C82BC083002369F0C701CF910F9140
:10054000FF90EF90DF90CF900C946A02C07F62E042
:1005500070E0E6CFCF910F91FF90EF90DF90CF90BA
:100560000895880F991FFC01E65DFE4F0190F08110
:10057000E02D208181E090E001C0880F6A95EAF7C4
:08058000809582238083089519
:1005880062E070E080E091E00E94230167EE73E092
:1005980083E091E00E94B30121E046E050E070E082
:1005A80060E081E090E00E94CC0080E00E940F01B2
:1005B80080E00E94F000789480914E01882399F0A1
:1005C8000E94FD00880F991F880F991FBC0169516F
:1005D8007C4F683883E1780720F483E091E00E943B
:0A05E800DC0110924E018895E7CF68
:1005F200000005000000000123002600290024005D
:1006020027002A00250028002B003601300189002E
:100612008B00040E3500360037006E006F0070004C
:1006220048008A00B30047008800B40046008400F6
:0E063200B20045008100B10044008000B0001D
:04000003000000AC4D
:00000001FF
