:100000000C9465000C9489000C9489000C94890070
:100010000C9489000C9489000C9489000C9489003C
:100020000C9489000C9489000C9489000C9489002C
:100030000C9489000C9489000C9489000C9489001C
:100040000C9489000C9489000C9489000C9489000C
:100050000C9489000C9434000C9489000C94890051
:100060000C9489000C9489001F920F920FB60F9286
:1000700011242F933F934F935F936F937F938F93AD
:100080009F93AF93BF93EF93FF930E940C01209136
:10009000720130917301820F931F909373018093CB
:1000A000720181E080937101FF91EF91BF91AF9157
:1000B0009F918F917F916F915F914F913F912F9180
:1000C0000F900FBE0F901F90189544275FEF68E0C8
:1000D0004FBF5DBF6EBF05D011D00E945B030C9473
:1000E000710011E001E7B1E0A0E0F8E0EEE102C04C
:1000F00005900D92A017B107D9F70895112411E0CA
:1001000004E7B1E0A1E701C01D92A017B107E1F734
:1001100008950C948900EAE7F0E08081806880838C
:100120000895EAE7F0E080818F7780830895EAE719
:10013000F0E08081886080830895EAE7F0E08081C4
:10014000877F80830895ECE7F0E09081907F908333
:100150009081892B80830895ECE7F0E090819F7374
:10016000908390818295880F880F807C892B808373
:100170000895EAE7F0E09081987F90839081892B41
:10018000808308958830910531F480917A008F7DC5
:1001900080937A00089590917A00906290937A000B
:1001A00090917B00987F90937B0090917B00892BAE
:1001B00080937B000895FF920F931F93CF93DF935B
:1001C0008B01EA01F22E0E94AC00FF2079F00E9420
:1001D0009700C8010E94C200CE010E94B900DF91C1
:1001E000CF911F910F91FF900C948B000E949D0066
:1001F000F0CFEAE7F0E080818064808308950E9478
:10020000A3000C94F900EAE7F0E08081908190610E
:100210009083829581700895809178009091790003
:100220000895EEE7F0E0908121E030E001C0220F78
:100230008A95EAF72095292320830895EEE7F0E0D8
:10024000908121E030E001C0220F8A95EAF7922BDD
:10025000908308950E94FF000E9403018823E1F328
:100260000C940C01FC01A081B181AA0FBB1FA25FFD
:10027000BE4F0D90BC91A02D828121E030E001C0E5
:10028000220F8A95EAF78C9162307105B9F4282B18
:100290002C93A081B181AA0FBB1FAC5EBE4F0D9005
:1002A000BC91A02D2C91328181E090E001C0880F9B
:1002B0003A95EAF7809582238C9308952095282318
:1002C0002C936130710529F7A081B181AA0FBB1F62
:1002D000AC5EBE4F0D90BC91A02D8C91928101C05F
:1002E000660F9A95EAF7682B6C930895DC01ED91FF
:1002F000FC911197EE0FFF1FEC5EFE4F0190F08115
:10030000E02D12962C9181E090E001C0880F2A9593
:10031000EAF79081662319F0892B808308958095F0
:100320008923FBCFDC01ED91FC911197EE0FFF1FAC
:10033000EC5EFE4F0190F081E02D908112968C9141
:1003400021E030E001C0220F8A95EAF7892F822749
:1003500080830895DC01ED91FC911197EE0FFF1F52
:10036000E85FFE4F0190F081E02D208130E0129691
:100370008C91F90102C0F595E7958A95E2F7CF01D6
:1003800081700895EF92FF920F93CF93DF93EC016A
:100390007B0162E070E002960E94320142E050E090
:1003A00061E070E081E090E00E941F026881798145
:1003B00000E0970142E050E081E090E00E948B0273
:1003C0006FE37CE981E090E0DF91CF910F91FF90A6
:1003D000EF900C945802AB01FC016081718181E0C7
:1003E00090E00C945F02262F8230910529F0653051
:1003F000710588F02EEF260F880F991FFC01EE5B28
:10040000FE4F0190F081E02D8081887F8083808184
:10041000822B808308956330710570F32FEFEBCF4B
:100420008130910511F470938500880F991FFC01AC
:10043000E45CFE4F0190F081E02D60830895CF933E
:10044000DF93EC016E5D7E4FFB019081C130D105E1
:1004500009F096959E01220F331FF901E85BFE4FCC
:10046000A081B1818C918C7F8C932E5B3E4FF901E2
:1004700060817181FB018081877E80832C91892F2F
:100480008370822B8C93208196959695F8E09F9FA0
:10049000C0011124822BFB018083BA01CE010E948E
:1004A000F30170E060E0CE01DF91CF910C94100277
:1004B000019721F470938700609386000895660F7A
:1004C000771F8130910539F4FB01E25EFE4F019008
:1004D000F081E02D5083665E7E4F880F991FDB010F
:1004E0002D913C91820F931FDC01ED91FC91408393
:1004F0000895880F991FFC01E65DFE4F0190F08181
:10050000E02D808121E030E001C0220F6A95EAF7FA
:10051000822B80830895CF92DF92EF92FF920F9308
:10052000CF937C016B01C42FA9010E945F02C29589
:10053000CD28D9F4CC0FCC0FC07C61E070E0F7017E
:10054000EE0FFF1FE85BFE4F0190F081E02D8081F0
:10055000C82BC083002369F0C701CF910F91FF9092
:10056000EF90DF90CF900C947902C07F62E070E052
:10057000E6CFCF910F91FF90EF90DF90CF9008954D
:10058000880F991FFC01E65DFE4F0190F081E02D80
:10059000208181E090E001C0880F6A95EAF780959C
:1005A000822380830895009749F0019749F490E2EF
:1005B0008091C100892B8093C100089590E8F8CF05
:1005C00090E0F6CFCF93C42F2091C10028612093F3
:1005D000C100880F991FFC01E25BFE4F8081918171
:1005E0009093C5008093C400662321F081E090E0E1
:1005F0000E94D302CC2329F090E080E0CF910C94AC
:10060000D302CF910895009751F0019751F480E201
:100610009091C100809589238093C100089580E85E
:10062000F7CF80E0F5CF8093C60008958091C60093
:1006300008958091C000881F8827881F08958091A1
:10064000C00085FB882780F90895CF93C82F0E94AA
:100650001F038823E1F3C093C600CF9108958091D2
:10066000C00087FFFCCF8091C6000895CF93DF9331
:10067000EC018991811103C0DF91CF9108950E940F
:100680002503F7CF0F931F93CF93DF93D62F8C01C2
:10069000C0E0CD1739F00E942F03F80181938F013C
:1006A000811107C08FEF8C0FDF91CF911F910F91B8
:0606B0000895CF5FEECFBC
:1006B600CF93DF93CDB7DEB760970FB6F894DEBF62
:1006C6000FBECDBF40E060E085E090E00E94E20210
:1006D60062E070E080E091E00E94320167EE73E034
:1006E60083E091E00E94C20121E046E050E070E024
:1006F60060E081E090E00E94DB0080E00E941E0145
:1007060080E00E94FF007894F12CE12C8091710129
:100716008823C1F18FEFE81AF80A8FE1E822FF2457
:10072600E114F10469F5F8940091720110917301D6
:1007360085E0169507958A95E1F7000F111F000FC2
:10074600111F09511C4F8AE591E00E9436034AE0C9
:10075600BE016F5F7F4FC8010E94DA03CE0101968A
:100766000E9436038EE691E00E943603B80183E0CC
:1007760091E00E94EB01109273011092720178943D
:08078600109271018895C2CFA9
:10078E0011E0A0E0B1E0EEE1F8E002C005900D92BC
:10079E00A137B107D9F721E0A1E7B1E001C01D9261
:0607AE00A437B207E1F7D9
:1007B400BB274A3031F4992322F4BDE29095819508
:1007C4009F4F0C94E603BB27FB015527AA27880FEC
:1007D400991FAA1FA41710F0A41B83955051B9F7B1
:1007E400A05DAA3308F0A95DA193009779F7B11130
:1007F400B1931192CB010C94FF03DC01FC01672F30
:1008040071917723E1F7329704C07C916D937083E3
:0A0814006291AE17BF07C8F3089504
:10081E00000005000000000123002600290024002E
:10082E0027002A00250028002B0036013001890000
:10083E008B00040E3500360037006E006F0070001E
:10084E0048008A00B30047008800B40046008400C8
:10085E00B20045008100B10044008000B000A0014C
:10086E00CF0067003300190008004176657261679A
:10087E0065204144432056616C75653A20000D0A8F
:01088E000069
:04000003000000CA2F
:00000001FF
