:100000000C945C000C9480000C9480000C94800094
:100010000C9480000C9480000C9480000C94800060
:100020000C9480000C9480000C9480000C94800050
:100030000C9480000C9480000C9480000C94800040
:100040000C9480000C9480000C9480000C94800030
:100050000C9480000C9480000C9480000C94800020
:100060000C9480000C9480000F931F93CF93DF9328
:10007000D42F152F072FC22F80640E941501802FC7
:100080000E94150180E00E941501812F0E94150138
:100090008D2F0E9415018C2F0E941501C8E0D0E021
:1000A0008FEF0E9415018F3F11F42197C9F7DF915F
:1000B000CF911F910F91089544275FEF68E04FBFE4
:1000C0005DBF6EBF05D011D00E9463020C94680022
:1000D00011E008EAB1E0A0E0FBE0E2EE02C005902A
:1000E0000D92A017B107D9F70895112411E008EA7D
:1000F000B1E0A8EA01C01D92A017B107E1F7089589
:100100000C9480008CB580648CBD08958CB58F7B79
:100110008CBD0895892B21F48CB580618CBD089528
:100120008CB58F7EFBCF9CB580FF08C094609CBDD2
:1001300081FF06C08CB588608CBD08959B7FF7CF8A
:100140008CB5877FF9CF9CB59C7F9CBD2CB5982F33
:100150009370922B9CBD82FF04C08DB581608DBDD4
:1001600008958DB58E7FFBCF892B21F48CB58062ED
:100170008CBD08958CB58F7DFBCF8CB580688CBD10
:1001800008958CB58F778CBD0895AF92BF92CF92B2
:10019000DF92EF92FF920F93CF93DF935C016B019D
:1001A0007A01E90162E070E089E091E00E94D30108
:1001B00062E070E083E091E00E94D30170E060E0D3
:1001C00086E091E00E94D301C5010E948A00C60129
:1001D0000E949300C7010E94A300CE010E94B400B8
:1001E000002369F00E94BD00DF91CF910F91FF9035
:1001F000EF90DF90CF90BF90AF900C9482000E9460
:10020000C100F2CF8EBD08958EB5089562E070E012
:100210000C94D30160E00C94170261E00C94170277
:100220008DB5881F8827881F08958EBD0E941001F4
:100230008823E1F38EB508958DB586FB882780F974
:100240000895009749F0019749F490E28091C10028
:10025000892B8093C100089590E8F8CF90E0F6CF05
:10026000CF93C42F2091C10028612093C100880F33
:10027000991FFC01E45FFE4F808191819093C5003E
:100280008093C400662321F081E090E00E94210168
:10029000CC2329F090E080E0CF910C942101CF9104
:1002A0000895009751F0019751F480E29091C100B8
:1002B000809589238093C100089580E8F7CF80E07E
:1002C000F5CF8093C60008958091C600089580916F
:1002D000C000881F8827881F08958091C00085FB73
:1002E000882780F90895CF93C82F0E946D01882335
:1002F000E1F3C093C600CF9108958091C00087FFBD
:10030000FCCF8091C6000895CF93DF93EC018991D3
:10031000811103C0DF91CF9108950E947301F7CF3F
:100320000F931F93CF93DF93D62F8C01C0E0CD178F
:1003300039F00E947D01F80181938F01811107C07E
:100340008FEF8C0FDF91CF911F910F910895CF5FA9
:10035000EECFEF92FF920F931F93CF93DF93D62FA1
:100360008C01C0E0CD1781F00E947D017801F80179
:1003700081938F010E947301F80131978081982F3A
:100380009F7D59F4F70110828FEF8C0FDF91CF9191
:100390001F910F91FF90EF9008958A3099F38D305F
:1003A00089F3CF5FDFCFFC01A081B181AA0FBB1F12
:1003B000A25EBE4F0D90BC91A02D828121E030E065
:1003C00001C0220F8A95EAF78C9162307105B9F469
:1003D000282B2C93A081B181AA0FBB1FAC5DBE4F0F
:1003E0000D90BC91A02D2C91328181E090E001C054
:1003F000880F3A95EAF7809582238C93089520958B
:1004000028232C936130710529F7A081B181AA0FAF
:10041000BB1FAC5DBE4F0D90BC91A02D8C91928105
:1004200001C0660F9A95EAF7682B6C930895DC017A
:10043000ED91FC911197EE0FFF1FEC5DFE4F0190C7
:10044000F081E02D12962C9181E090E001C0880FA0
:100450002A95EAF79081662319F0892B8083089505
:1004600080958923FBCFDC01ED91FC911197EE0F74
:10047000FF1FEC5DFE4F0190F081E02D9081129600
:100480008C9121E030E001C0220F8A95EAF7892F94
:10049000822780830895DC01ED91FC911197EE0F86
:1004A000FF1FE85EFE4F0190F081E02D208130E0DB
:1004B00012968C91F90102C0F595E7958A95E2F7BD
:0604C000CF0181700895D8
:1004C600CF93DF9300D000D0CDB7DEB740E060E039
:1004D60085E090E00E94300100E021E030E042E05B
:1004E60050E070E060E090E080E00E94C50080E0AF
:1004F60091E00E94060180E091E00E940D010AE071
:1005060010E08FEF0E94150101501109D1F780E02C
:1005160091E00E940A0125E940E050E0BA0180E03E
:100526000E9434008130F1F427E84AEA51E060E0A5
:1005360070E088E00E94340082FF2BC08AE291E0DE
:100546000E94840108EE13E029EF40E050E0BA0172
:1005560081E00E943400882309F44CC0015011093F
:1005660099F78FEF1F928F9381E891E09F938F9376
:1005760088EA91E09F938F930E94500388EA91E066
:100586000E9484010F900F900F900F900F900F9084
:1005960039C0813079F58E010F5F1F4F7E0185E0EE
:1005A600E80EF11C8FEF0E941501F80181938F016F
:1005B600EE16FF06B9F78B81813099F68C818A3A5F
:1005C60081F608EE13E025E640E050E0BA0187E345
:1005D6000E943400823028F627E740E050E060E0D1
:1005E60070E489E20E943400882321F00150110949
:1005F60051F7B7CF80E091E00E940D018DE591E0C3
:060606000E948401FFCFF9
:10060C002F923F924F925F926F927F928F929F9216
:10061C00AF92BF92CF92DF92EF92FF920F931F9304
:10062C00CF93DF93CDB7DEB7CA1BDB0B0FB6F894B5
:10063C00DEBF0FBECDBF09942A88398848885F84F5
:10064C006E847D848C849B84AA84B984C884DF8066
:10065C00EE80FD800C811B81AA81B981CE0FD11D4A
:0E066C000FB6F894DEBF0FBECDBFED010895AE
:10067A0011E0A0E0B1E0E2EEFBE002C005900D92CD
:10068A00A83AB107D9F721E0A8EAB1E001C01D9262
:06069A00A83AB207E1F7E7
:1006A000AEE0B0E0E6E5F3E00C9414030D891E899A
:1006B00086E08C831A8309838FEF9FE79E838D8367
:1006C000AE01475E5F4F6F89788DCE0101960E9423
:1006D00073032F813885020F131FF80110822E96A5
:1006E000E4E00C943003ABE0B0E0E9E7F3E00C9415
:1006F00006037C013B018A01FC011782168283817B
:1007000081FFC8C1CE0101965C01F7019381F3011D
:1007100093FD859193FF81913F01882309F453C193
:10072000853239F493FD859193FF81913F018532A4
:1007300029F4B70190E00E946305E7CF912C212CAA
:10074000312CFFE1F31538F08B3211F190F4803247
:1007500009F1833229F137FC3CC020ED280F2A3003
:1007600050F536FE20C08AE0989E200D1124922E6E
:1007700006C08D3291F0803371F7689430F8F30140
:1007800093FD859193FF81913F018111DACF21C0C3
:10079000689431F8689432F8F2CF689433F8EFCF68
:1007A000689434F8ECCFEAE02E9E200D1124222E1E
:1007B000689435F8E4CF8E3229F436FC04C168948D
:1007C00036F8DDCF8C3619F4689437F8D8CF8836F0
:1007D000B1F2982F9F7D95549330E0F08336A1F1CC
:1007E0008337C1F1833509F063C02801F2E04F0E71
:1007F000511CF801C080D180692D70E036FC02C028
:100800006FEF7FEFC6010E944D054C01689437F8E9
:1008100082010AC00C5F1F4FFFE3F9838824839491
:10082000912C6501E89437F833FE2DC0522C8114C9
:10083000910471F5552009F468CFB70180E290E08A
:100840000E9463055A94F6CFF801808189830E5F78
:100850001F4FE4CF2801F2E04F0E511CF801C08079
:10086000D180692D70E036FC02C06FEF7FEFC601CA
:100870000E9458054C018201D5CFB70180E290E07B
:100880000E9463052A942814190409F0B0F7CECF0A
:10089000F60137FC859137FE81916F01B70190E039
:1008A0000E94630551105A94F1E08F1A9108BFCF4E
:1008B000843619F0893609F077C0F80137FE6BC02D
:1008C00060817181828193810C5F1F4FF32DFF76D0
:1008D0003F2E97FF09C090958095709561957F4F49
:1008E0008F4F9F4F689437F82AE030E0A5010E94AF
:1008F0009305C82ECA188C2C432C36FE0CC0E894E5
:1009000040F8C91440F434FE05C032FC03C0F32D96
:10091000FE7E4F2E892C44FE95C0FE01EC0DF11D8C
:100920008081803309F087C0242D297E422E842DBA
:100930008870582E43FC95C040FE8FC09C2C8214BA
:1009400018F42C0C922C981844FE91C0B70180E347
:1009500090E00E94630542FE09C088E790E041FEF6
:1009600002C088E590E0B7010E946305C91408F44D
:100970008AC0CA94D12C9FEFC91AD90ACA0CDB1CB1
:10098000F60182916F01B70190E00E946305AC14FB
:10099000BD04B1F74FCF60817181072E000C880B29
:1009A000990B0E5F1F4F92CFD32CE894D4F82AE016
:1009B00030E0853739F1232D297FD22E8F3601F192
:1009C00048F48835A9F0F701868197812B96E2E1FA
:1009D0000C942203803749F08837A9F7D4FE02C06F
:1009E0006894D2F820E130E00DC06894D4F8F6CFD6
:1009F00034FE03C0822F8660D82E20E132E002C090
:100A000028E030E0F801D7FE0FC06081718182815B
:100A100093810C5F1F4FA5010E949305C82ECA1831
:100A20003D2CE89437F867CF6081718190E080E0D9
:100A30000E5F1F4FF0CF42FC02C0839478CF8394A7
:100A4000839475CF842D867809F471CFF6CFB701E2
:100A500080E290E00E94630583948214C0F3512CDD
:100A600073CF522C5818821408F46ECFF8CF842D0F
:100A7000867809F47BCF8BE241FE80E247FC8DE271
:100A8000B70190E071CFB70180E390E00E94630569
:100A90009A946CCF8FEF9FEF99CFFC010590615036
:100AA00070400110D8F7809590958E0F9F1F089584
:100AB000FC016150704001900110D8F7809590952D
:100AC0008E0F9F1F08950F931F93CF93DF93182FBF
:100AD000092FEB018B8181FD09C01FEF0FEF812FE3
:100AE000902FDF91CF911F910F91089582FF14C035
:100AF0002E813F818C819D81281739073CF4E88144
:100B0000F981CF0101969983888310838E819F811B
:100B100001969F838E83E3CFE885F985812F099520
:100B2000892BA1F3DACFFA01AA27283051F120311D
:100B300081F1E8946F936E7F6E5F7F4F8F4F9F4F71
:100B4000AF4FB1E03ED0B4E03CD0670F781F891FB3
:100B50009A1FA11D680F791F8A1F911DA11D6A0F81
:100B6000711D811D911DA11D20D009F468943F9134
:100B70002AE0269F11243019305D3193DEF6CF0133
:100B80000895462F4770405D4193B3E00FD0C9F7F9
:100B9000F6CF462F4F70405D4A3318F0495D31FD66
:100BA0004052419302D0A9F7EACFB4E0A6959795B9
:100BB000879577956795BA95C9F70097610571058F
:100BC00008959B01AC010A2E0694579547953795D9
:100BD0002795BA95C9F7620F731F841F951FA01D33
:020BE000089576
:100BE200000002000003000004000005A001CF0085
:100BF20067003300190008002300260029002400A2
:100C020027002A00250028002B005344204361724C
:100C12006420646F6573206E6F7420737570706FDB
:100C2200727420434D44382028617373756D696E68
:100C32006720534420312E30292E0A0D00534420C0
:100C42004361726420696E697469616C697A656472
:100C5200207375636365737366756C6C79210A0D15
:100C6200005344204361726420696E697469616C47
:100C7200697A6174696F6E206572726F723A2030A0
:080C820078253032580A0D00FC
:04000003000000B841
:00000001FF
