:100000000C9474000C9498000C9498000C94980034
:100010000C9498000C9498000C9498000C94980000
:100020000C9498000C9498000C9498000C949800F0
:100030000C9498000C9498000C9498000C949800E0
:100040000C9498000C9498000C9498000C949800D0
:100050000C9498000C9498000C9498000C949800C0
:100060000C9498000C9498000F931F93CF938C01DD
:10007000C62F84E191E00E946102C8010E946102E2
:1000800086E191E00E94610240E162E871E08C2F1C
:1000900090E00E94A20382E891E00E9461028FE753
:1000A00091E0CF911F910F910C94610223E0AC017C
:1000B00060E088E60E9477018F3F31F0682F8CE185
:1000C00091E00E943400FFCF089523E0AC0160E08E
:1000D00088E60E94AE018F3F31F0682F84E391E003
:1000E0000E943400FFCF089544275FEF68E04FBFC0
:1000F0005DBF6EBF05D011D00E94B0020C9480008D
:1001000011E002E8B1E0A0E0F3E1EEE302C0059007
:100110000D92A017B107D9F70895112411E002E953
:10012000B1E0A2E801C01D92A017B107E1F7089560
:100130000C949800ECEBF0E080818460808308955B
:10014000ECEBF0E080818B7F80830895ECEBF0E0B6
:1001500080818064808308958091BC00881F8827F7
:10016000881F089584E88093BC000895ECEBF0E0CC
:100170008081816080830895ECEBF0E080818E7F48
:100180008083089580509F4FFC0180818093B80048
:10019000662321F00E94B6000C949A000E94BC00D5
:1001A000FBCF8091B900887F089584EA8093BC00DA
:1001B000089584E98093BC0008958093BB0084E88F
:1001C0008093BC0008958091BB00089584EA8093D9
:1001D000BC008091BC0087FFFCCF8091B900887F74
:1001E000883011F0803109F48FEF089584E980930D
:1001F000BC008091BC0084FDFCCF8091B900887F59
:10020000883F09F48FEF08959091BC0097FFFCCFD1
:100210008093BB0084E88093BC008091BC0087FF82
:10022000FCCF8091B900887F883121F0803411F0B3
:10023000883209F48FEF08950F931F93CF938C01A9
:10024000C62F84E88093BC0061110E94A6008091B3
:10025000BC0087FFFCCF8091BB00F80180838091B8
:10026000B900887FCC2321F0803521F48FEF02C0C4
:100270008835E1F3CF911F910F910895CF93DF93CC
:10028000D82FC62F0E94E6008F3F79F48D2F880F5C
:100290000E9404018F3F49F48C2F0E9404018F3F7C
:1002A00021F4DF91CF910C94F600DF91CF91089566
:1002B0000F931F93CF93C82F8B010E94E6008F3FAF
:1002C00091F48C2F880F81600E9404018F3F59F4B4
:1002D00060E0C8010E941C018F3F29F4CF911F915B
:1002E0000F910C94F600CF911F910F910895EF920A
:1002F000FF920F931F93CF93DF93182FD62F7A017E
:10030000C22F0E94E6008F3F69F4812F880F0E9460
:1003100004018F3F39F48D2F0E9404018701D0E042
:100320008F3F71F0DF91CF911F910F91FF90EF9070
:100330000895F80181918F010E9404018F3F91F788
:10034000C8018E199F098C179D079CF3DF91CF91EF
:100350001F910F91FF90EF900C94F600CF92DF92D7
:10036000EF92FF920F931F93CF93DF93C82FD62F57
:100370007A01022F0E94E6008F3FB9F5CC0F8C2F37
:100380000E9404018F3F89F58D2F0E9404018F3F49
:1003900061F50E94E6008F3F41F58C2F81600E943D
:1003A00004018F3F11F5D0E0C0E010E0680181E06A
:1003B000C81AD108C017D10754F0DF91CF911F910F
:1003C0000F91FF90EF90DF90CF900C94F60061E0DA
:1003D000CC16DD0609F460E0C7018C0F9D1F0E945A
:1003E0001C018F3F11F42196E5CFDF91CF911F9132
:1003F0000F91FF90EF90DF90CF900895009749F014
:10040000019749F490E28091C100892B8093C1004B
:10041000089590E8F8CF90E0F6CFCF93C42F2091C5
:10042000C10028612093C100880F991FFC01E85F7B
:10043000FE4F808191819093C5008093C400662314
:1004400021F081E090E00E94FE01CC2329F090E0B1
:1004500080E0CF910C94FE01CF910895009751F068
:10046000019751F480E29091C10080958923809397
:10047000C100089580E8F7CF80E0F5CF8093C600F3
:1004800008958091C60008958091C000881F882734
:10049000881F08958091C00085FB882780F9089502
:1004A000CF93C82F0E944A028823E1F3C093C6006D
:1004B000CF9108958091C00087FFFCCF8091C60046
:1004C0000895CF93DF93EC018991811103C0DF91EF
:1004D000CF9108950E945002F7CF0F931F93CF93AF
:1004E000DF93D62F8C01C0E0CD1739F00E945A025D
:1004F000F80181938F01811107C08FEF8C0FDF917D
:10050000CF911F910F910895CF5FEECFEF92FF92A1
:100510000F931F93CF93DF93D62F8C01C0E0CD179D
:1005200081F00E945A027801F80181938F010E94A4
:100530005002F80131978081982F9F7D59F4F7017F
:1005400010828FEF8C0FDF91CF911F910F91FF9051
:10055000EF9008958A3099F38D3089F3CF5FDFCF24
:10056000CF93DF93CDB7DEB7C257D1090FB6F8945A
:10057000DEBF0FBECDBF40E060E085E090E00E94AE
:100580000D0260E090E080E00E94C200CE01019682
:100590007C018E0100591F4F8AE0382E9BE6492EC0
:1005A00091E0592E2BE0222E6E0195E6C90ED11C4A
:1005B0003801EFEF6E1A7E0A5801F2E0AF0EB11C5F
:1005C00032E5832E31E0932E8BE491E00E946102AC
:1005D00064E6C7010E9486026EE471E0C7010E94D2
:1005E0009903892BE9F464E6C7010E9486028FE72C
:1005F00091E00E9461021F930F937F926F92BF92CE
:10060000AF929F928F92FF92EF920E94F703C801E0
:100610000E9456000FB6F894DEBF0FBECDBFD4CFF8
:1006200067E671E0C7010E949903892B69F68FE79D
:1006300091E00E946102C8010E946500F8014081BA
:1006400021818281942F92959F704F7050E0939DED
:10065000400D511D11245F934F93922F92959F70DF
:100660002F7030E0939D200D311D11243F932F9367
:1006700084FB222720F98F7090E0239D800D911D2F
:1006800011249F938F935F924F921F922F92DF922C
:0E069000CF920E94C703C6010E946102BBCF39
:10069E002F923F924F925F926F927F928F929F9284
:1006AE00AF92BF92CF92DF92EF92FF920F931F9372
:1006BE00CF93DF93CDB7DEB7CA1BDB0B0FB6F89423
:1006CE00DEBF0FBECDBF09942A88398848885F8463
:1006DE006E847D848C849B84AA84B984C884DF80D4
:1006EE00EE80FD800C811B81AA81B981CE0FD11DB8
:0E06FE000FB6F894DEBF0FBECDBFED0108951C
:10070C0011E0A0E0B1E0EEE3F3E102C005900D9240
:10071C00A238B107D9F721E0A2E8B1E001C01D92DF
:06072C00A239B207E1F75B
:10073200FB01DC018D91019080190110D9F3990B15
:100742000895BB274A3031F4992322F4BDE29095F3
:1007520081959F4F0C94AE03BB27FB015527AA2717
:10076200880F991FAA1FA41710F0A41B839550513C
:10077200B9F7A05DAA3308F0A95DA193009779F7B4
:10078200B111B1931192CB010C94A408AEE0B0E088
:10079200EDECF3E00C945D030D891E898F89988D31
:1007A20026E02C831A83098397FF02C080E090E839
:1007B20001979E838D83AE01455E5F4F698D7A8D71
:1007C200CE0101960E9410044D815E8157FD0AC040
:1007D2002F813885421753070CF49A01020F131F19
:1007E200F80110822E96E4E00C947903AEE0B0E0BA
:1007F200EDEFF3E00C945F0385E08C838B899C8999
:100802009A838983AE01495E5F4F6D897E89CE01ED
:1008120001960E9475072E96E2E00C947B03ABE0F2
:10082200B0E0E6E1F4E00C944F037C013B018A0165
:10083200FC0117821682838181FFC8C1CE01019615
:100842005C01F7019381F30193FD859193FF8191FF
:100852003F01882309F453C1853239F493FD859110
:1008620093FF81913F01853229F4B70190E00E9404
:10087200F008E7CF912C212C312CFFE1F31538F051
:100882008B3211F190F4803209F1833229F137FC75
:100892003CC020ED280F2A3050F536FE20C08AE0F9
:1008A200989E200D1124922E06C08D3291F0803335
:1008B20071F7689430F8F30193FD859193FF81916C
:1008C2003F018111DACF21C0689431F8689432F87F
:1008D200F2CF689433F8EFCF689434F8ECCFEAE0C3
:1008E2002E9E200D1124222E689435F8E4CF8E32EC
:1008F20029F436FC04C1689436F8DDCF8C3619F43D
:10090200689437F8D8CF8836B1F2982F9F7D9554E6
:100912009330E0F08336A1F18337C1F1833509F0DA
:1009220063C02801F2E04F0E511CF801C080D18053
:10093200692D70E036FC02C06FEF7FEFC6010E94A6
:100942008E084C01689437F882010AC00C5F1F4F71
:10095200FFE3F98388248394912C6501E89437F8A6
:1009620033FE2DC0522C8114910471F5552009F4E7
:1009720068CFB70180E290E00E94F0085A94F6CF67
:10098200F801808189830E5F1F4FE4CF2801F2E0D6
:100992004F0E511CF801C080D180692D70E036FCE9
:1009A20002C06FEF7FEFC6010E9499084C018201DD
:1009B200D5CFB70180E290E00E94F0082A94281473
:1009C200190409F0B0F7CECFF60137FC859137FE56
:1009D20081916F01B70190E00E94F00851105A9482
:1009E200F1E08F1A9108BFCF843619F0893609F0E9
:1009F20077C0F80137FE6BC060817181828193817B
:100A02000C5F1F4FF32DFF763F2E97FF09C0909585
:100A12008095709561957F4F8F4F9F4F689437F8FF
:100A22002AE030E0A5010E943809C82ECA188C2C91
:100A3200432C36FE0CC0E89440F8C91440F434FE4E
:100A420005C032FC03C0F32DFE7E4F2E892C44FEDE
:100A520095C0FE01EC0DF11D8081803309F087C045
:100A6200242D297E422E842D8870582E43FC95C059
:100A720040FE8FC09C2C821418F42C0C922C9818D7
:100A820044FE91C0B70180E390E00E94F00842FE6C
:100A920009C088E790E041FE02C088E590E0B70116
:100AA2000E94F008C91408F48AC0CA94D12C9FEF9E
:100AB200C91AD90ACA0CDB1CF60182916F01B7016F
:100AC20090E00E94F008AC14BD04B1F74FCF6081F2
:100AD2007181072E000C880B990B0E5F1F4F92CF6E
:100AE200D32CE894D4F82AE030E0853739F1232D6D
:100AF200297FD22E8F3601F148F48835A9F0F7010B
:100B0200868197812B96E2E10C946B03803749F042
:100B12008837A9F7D4FE02C06894D2F820E130E009
:100B22000DC06894D4F8F6CF34FE03C0822F8660DD
:100B3200D82E20E132E002C028E030E0F801D7FEF2
:100B42000FC060817181828193810C5F1F4FA5016B
:100B52000E943809C82ECA183D2CE89437F867CF8E
:100B62006081718190E080E00E5F1F4FF0CF42FC08
:100B720002C0839478CF8394839475CF842D867832
:100B820009F471CFF6CFB70180E290E00E94F0083D
:100B920083948214C0F3512C73CF522C58188214B0
:100BA20008F46ECFF8CF842D867809F47BCF8BE2E0
:100BB20041FE80E247FC8DE2B70190E071CFB701C0
:100BC20080E390E00E94F0089A946CCF8FEF9FEF41
:100BD20099CF20FD09C0FC0123FD05C022FF02C000
:100BE2007383628351834083089544FD17C046FD99
:100BF2001DC0DB01FC01AA0FBB1FEE1FFF1F1094DB
:100C0200D1F76A0F7B1F8E1F9F1F660F771F881FEA
:100C1200991F620F711D811D911D089533E0660FAA
:100C2200771F881F991F3150D1F7F3CF34E0F7CFE8
:100C32000F931F93CF93DF938C01C8010E94B408D6
:100C4200EC0197FD08C00E947A08892BB1F7B80120
:100C5200CE010E942009CE01DF91CF911F910F9109
:100C620008958F929F92AF92BF92EF92FF920F934D
:100C72001F93CF93DF938C01D62F7A01B22E0E945D
:100C8200B4089C0133272B32310529F02D3231056E
:100C9200A9F46894B7F8D15061F480E0DF91CF9164
:100CA2001F910F91FF90EF90BF90AF909F908F9008
:100CB2000895C8010E94B40897FDEFCFCB2DCD7FD8
:100CC2002B2D2073F9F48033E9F4AA24AA94AD0EF3
:100CD20089F0C8010E94B40897FD0CC0282F2F7D0F
:100CE200283561F4C264D25029F0C8010E94B408C8
:100CF20097FF08C0812C912C54011BC0B6FE2BC05B
:100D0200C260DA2D812C912C540120ED280F28305D
:100D120028F1C4FD09C02A3008F1C6FF05C02F7DA5
:100D22003FEE320F3630C8F0B8010E942009C1FFF1
:100D3200B4CFC7FF08C0B094A09490948094811C53
:100D4200911CA11CB11C2C2FB501A401C7010E944A
:100D5200EA0581E0A3CFC261D4CF27504C2FC50151
:100D6200B4010E94F6054B015C01C260D15009F347
:100D7200C8010E94B40897FFC8CFD9CFA0E2B0E063
:100D8200E5ECF6E00C9454035C01962E7A01CE0158
:100D920001966C0180E2F60111928A95E9F7F5015C
:100DA200B381890130E020E0712C812CA0E041E088
:100DB20050E0F801B3FD8591B3FF8191982F8F0127
:100DC200811107C010E000E0C801A096EDE00C948C
:100DD20070038E3519F42115310541F1A21713065E
:100DE2004CF48D3549F18D3229F4811006C08824E6
:100DF20083941DC0882009F464C0E92FE695E69526
:100E0200E695EC0DFD2DF11D892F8770BA0101C009
:100E1200660F8A95EAF78081682B6083791651F014
:100E2200971510F49F5FE9CF9150E7CFA1E02F5FB4
:100E32003F4FBFCF812CFBCF882019F08E8180627B
:100E42008E83AA2359F0F6019E012F5D3F4F8081C8
:100E5200809580833196E217F307C9F7882483943B
:100E6200C5010E94B40897FD16C0E82FE695E695E5
:100E7200E695EC0DFD2DF11D208130E0AC014770AF
:100E8200552702C0359527954A95E2F720FD06C001
:100E9200B5010E942009882069F094CFE114F10481
:100EA20029F0F7018083C70101967C019A94812C75
:100EB2009110D6CFE114F10409F486CFF701108224
:100EC20083CFE82FE695E695E695EC0DFD2DF11D15
:100ED200982F9770BA0101C0660F9A95EAF7908130
:100EE200692B6083782EA3CFB0E0A0E0EBE7F7E0B8
:100EF2000C9452036C01EB015A01FC011782168219
:100F0200512CF601E380FE01E3FC8591E3FE819121
:100F1200182FEF018823E9F090E00E947A08892BCC
:100F220021F0C6010E941906ECCF153241F4FE01F0
:100F3200E3FC1591E3FE1191EF01153269F4C6014C
:100F42000E94B40897FD8EC01817D9F2B6010E940C
:100F52002009852D90E08AC000E01A3231F4E3FCCA
:100F62001591E3FE1191EF0101E0F12C20ED210F2B
:100F72002A3048F101FF37C0FF2059F31836B1F18A
:100F82001C3609F43DC0112321F3612F70E082E386
:100F920093E10E948308892BE1F2912C812C00FDC0
:100FA20006C0F50180809180C50102965C011E3663
:100FB20079F5F6014681578170E060E0202FC40187
:100FC2000E94EA059ECF02606F2D70E090E080E003
:100FD20040E20E94F605F62EFE01E3FC1591E3FEC7
:100FE2001191EF01C3CFFF24FA94C8CFFE01E3FCB5
:100FF2001591E3FE1191EF01183609F0C4CF086094
:101002000460FE01E3FC1591E3FE1191EF01BBCFF9
:101012001336C1F401FD02C0FF24F394C6010E94FD
:10102200B40897FD1FC08114910429F0F401808354
:10103200C40101964C01FA94F110F0CF00FD61CF8A
:1010420053945FCF1B35B9F49E01A4016F2DC601E5
:101052000E94BF06EC01892B89F7F6018381807318
:1010620009F477CF8FEF9FEF511073CFCDB7DEB773
:10107200EFE00C946E03C6010E94190697FDF2CFB1
:101082001F36A9F130F4143641F0193639F00064F4
:1010920005C01337B9F01537D1F70062202FA4012C
:1010A2006F2DC6010E9432068111C8CFD6CF81149E
:1010B200910429F0F4016082C40101964C01FA9472
:1010C200FF2071F0C6010E94B4083C0197FD08C0E0
:1010D2000E947A08892B59F3B601C3010E942009A4
:1010E2008114910409F4AACFF4011082A7CF006100
:1010F200D5CF91110C949609803219F08950855000
:10110200C8F70895FC010590061621F00020D9F7D2
:10111200C00108953197CF010895FC0105906150F7
:1011220070400110D8F7809590958E0F9F1F0895FB
:10113200FC016150704001900110D8F780959095A4
:101142008E0F9F1F0895DC01FC01672F7191772399
:10115200E1F7329704C07C916D9370836291AE1770
:10116200BF07C8F30895CF93DF93EC012B8120FFD3
:101172001AC026FF0CC02F7B2B838E819F81019684
:101182009F838E838A8190E0DF91CF91089522FF21
:1011920018C0E881F9818081082E000C990B009714
:1011A20029F420622B838FEF9FEFEECF3196F983E4
:1011B200E8832E813F812F5F3F4F3F832E83992704
:1011C200E3CFEA85FB85099597FFF3CF2B81019643
:1011D20021F080E2822B8B83E6CF80E1FBCF0F935D
:1011E2001F93CF93DF93182F092FEB018B8181FD82
:1011F20009C01FEF0FEF812F902FDF91CF911F9129
:101202000F91089582FF14C02E813F818C819D81B0
:10121200281739073CF4E881F981CF0101969983B7
:10122200888310838E819F8101969F838E83E3CF73
:10123200E885F985812F0995892BA1F3DACFFB0186
:10124200238120FF11C026FD0FC08F3F980771F048
:1012520082832F7D206423832681378121503109A7
:1012620037832683992708958FEF9FEF0895FA0118
:10127200AA27283051F1203181F1E8946F936E7FD3
:101282006E5F7F4F8F4F9F4FAF4FB1E03ED0B4E0C4
:101292003CD0670F781F891F9A1FA11D680F791F05
:1012A2008A1F911DA11D6A0F711D811D911DA11D16
:1012B20020D009F468943F912AE0269F1124301926
:1012C200305D3193DEF6CF010895462F4770405DC1
:1012D2004193B3E00FD0C9F7F6CF462F4F70405D70
:1012E2004A3318F0495D31FD4052419302D0A9F7CB
:1012F200EACFB4E0A6959795879577956795BA95C5
:10130200C9F700976105710508959B01AC010A2E8A
:1013120006945795479537952795BA95C9F7620F61
:10132200731F841F951FA01D08959927882708956C
:0C1332006364696E6F70737578585B001F
:10133E00480C010005010004A001CF006700330036
:10134E00190008005B005D3A2030780044533332B8
:10135E0033312054696D652057726974652065724A
:10136E00726F72004453333233312054696D6520ED
:10137E0052656164206572726F72003E2000736563
:10138E0074002530326868643A2530326868643AF1
:10139E0025303268686400676574002530326868ED
:1013AE00643A2530326868643A2530326868640AD7
:0213BE000D0020
:04000003000000E811
:00000001FF
