:100000000C9434000C9449000C9449000C94490061
:100010000C9449000C9449000C9449000C9449003C
:100020000C9449000C9449000C9449000C9449002C
:100030000C9449000C9449000C9449000C9449001C
:100040000C9449000C9449000C9449000C9449000C
:100050000C9449000C9449000C9449000C944900FC
:100060000C9449000C94490011241FBECFEFD8E036
:10007000DEBFCDBF11E0A0E0B1E0ECE4F2E002C0F1
:1000800005900D92AA31B107D9F70E945A000C943D
:1000900024010C94000030E020E0281739070CF010
:1000A000089548EB5BE0000041505109E1F72F5FF4
:1000B0003F4FF3CFCF93DF93CDB7DEB728970FB67F
:1000C000F894DEBF0FBECDBF809112019091130155
:1000D000A0911401B09115018D839E83AF83B887E1
:1000E0008091160190911701A0911801B09119010A
:1000F00089839A83AB83BC8361E0CE0105960E941D
:10010000AD0062E0CE0101960E94AD0061E0CE013B
:1001100007960E94AD0062E0CE0103960E94AD00FA
:10012000CE0105960E940D01811108C0CE010196F5
:100130000E94F60088EC90E00E944B00CE010796EA
:100140000E940D018111ECCFCE0103960E94F600B2
:1001500088EC90E00E944B00E3CFDC01EC91F0E0F2
:10016000EE0FFF1FEA5FFE4F0190F081E02D119628
:100170008C91119721E030E0A90102C0440F551F76
:100180008A95E2F7CA0190816230C1F4892B80839D
:10019000EC91F0E0EE0FFF1FE45FFE4F0190F08165
:1001A000E02D208111963C9181E090E001C0880F04
:1001B0003A95EAF780958223808308958095892374
:1001C0008083613029F7EC91F0E0EE0FFF1FE45FD0
:1001D000FE4F0190F081E02D808111969C9101C02D
:1001E000220F9A95EAF7282B20830895DC01EC91E1
:1001F000F0E0EE0FFF1FE45FFE4F0190F081E02D75
:10020000908111968C9121E030E001C0220F8A95F7
:10021000EAF7892F822780830895DC01EC91F0E0D2
:10022000EE0FFF1FE050FF4F0190F081E02D208185
:1002300030E011968C91F90102C0F595E7958A9509
:0C024000E2F7CF0181700895F894FFCF21
:10024C00230026002900240027002A00250028006E
:0A025C002B00020202030204020557
:00000001FF
