:100000000C948C020C94DB000C94B0020C94B002A3
:100010000C94B0020C94B0020C94EA000C94B00260
:100020000C94B0020C94B0020C94B0020C94B00288
:100030000C94B0020C94B0020C94B0020C94B00278
:100040000C94B0020C94B0020C9483000C94450004
:100050000C94B0020C94B0020C94B0020C94B00258
:100060000C94B0020C94B00261E072E081E091E087
:100070000E94E5098CE1809365011092660110925F
:10008000670181E090E00C9451081F920F920FB627
:100090000F9211242F933F934F935F936F937F930E
:1000A0008F939F93AF93BF93EF93FF93E09166017C
:1000B00080916501E817ECF481E08E0F8093660172
:1000C0000E2E000CFF0BEF5FFE4F80810E94960802
:1000D000FF91EF91BF91AF919F918F917F916F9120
:1000E0005F914F913F912F910F900FBE0F901F90F6
:1000F00018951092660181E08093670181E090E09D
:100100000E948608E5CF1F920F920FB60F9211241E
:100110002F933F934F935F936F937F938F939F930F
:10012000AF93BF93EF93FF9380910A03811115C0A2
:100130000E949908882321F08A3011F08D30F1F463
:100140000E94A808E09108030E2E000CFF0BEC554E
:10015000FD4F108281E080930A03FF91EF91BF91E0
:10016000AF919F918F917F916F915F914F913F914F
:100170002F910F900FBE0F901F901895E0910803DC
:100180001E1674F4883061F4E150E09308030E9475
:10019000A80880E20E94A80888E00E94A808DDCF95
:1001A00091E09E0F909308030E2E000CFF0BEC5570
:1001B000FD4F8083F2CF1F920F920FB60F92112442
:1001C0008F9381E0809300018F910F900FBE0F906D
:1001D0001F9018951F920F920FB60F9211242F9314
:1001E0003F934F935F936F937F938F939F93AF93BF
:1001F000BF93EF93FF930E942B071F928F938CE77F
:1002000092E09F938F931F9284E68F9381E091E019
:100210009F938F930E94FA0981E091E00E94B908B0
:100220008DB79EB708960FB6F8949EBF0FBE8DBFD0
:10023000FF91EF91BF91AF919F918F917F916F91BE
:100240005F914F913F912F910F900FBE0F901F9094
:100250001895CF93DF93CDB7DEB72C970FB6F894F0
:10026000DEBF0FBECDBFF8940E9466090E94DD027A
:1002700062E070E08AE691E00E946E0361E08AE647
:1002800091E00E94B20341E061E085E090E00E94CD
:10029000600860E090E080E00E94080763E070E0A2
:1002A00090E080E00E94FE0361E085E090E00E9423
:1002B00095090E94460688E691E00E942F0588E68F
:1002C00091E00E94CE05789482E1382E8E01065F7F
:1002D0001F4F9EE0492E22E2E22E22E0F22E39E06C
:1002E000232E9E012F5F3F4F69014AE0542E3E01AD
:1002F0003BE0630E711C5E018CE0A80EB11C58EA55
:10030000852E52E0952EA89580910A038823E1F16D
:10031000809167018823C1F143E050E06EE172E013
:1003200084EA92E00E94EC09892B09F08DC01F93AA
:100330000F937F926F92BF92AF92FF92EF929F9234
:100340008F920E942A0AC8010E9482060FB6F89472
:10035000DEBF0FBECDBF81116EC00E94340067E7C3
:1003600072E081E091E00E94D109809165018C5F8B
:10037000809365011092670181E090E00E9451082E
:1003800010920A031092080380910001882309F457
:100390004FC0C8010E94AF0688E691E00E948A051E
:1003A0008C85652D0E94B109482F60E088E691E0B8
:1003B0000E94E9058C85652D0E94B109492F62E0F4
:1003C00088E691E00E94E9056AE388E691E00E94F0
:1003D000F0048B85652D0E94B109482F65E088E601
:1003E00091E00E94E9058B85652D0E94B109492F96
:1003F00067E088E691E00E94E9056AE388E691E01B
:100400000E94F0048A85652D0E94B109482F6AE098
:1004100088E691E00E94E9058A85652D0E94B10970
:10042000492F6CE088E691E00E94E90510920001F6
:100430000E94BA0268CF63EA72E081E091E00E9414
:10044000E509109265018BCF67E372E084EA92E0E0
:100450000E94DC09892B21F58A851F928F938B8559
:100460001F928F938C851F928F93FF92EF921F9212
:100470002F92DF92CF920E94FA0961EA72E081E046
:1004800091E00E94E509B60181E091E00E94D10966
:10049000509265010FB6F894DEBF0FBECDBF5FCF9F
:1004A0006BE372E084EA92E00E94DC09892B79F424
:1004B00043E0B80190E080E00E94260361E472E02E
:1004C00081E091E00E94E5094092650148CF60E536
:1004D00072E084EA92E00E94DC09892B79F443E01F
:1004E000B80190E080E00E945003C8010E9482069B
:1004F000882309F432CF65E572E0E2CF80910803EA
:10050000882309F42CCF64E672E081E091E00E9438
:10051000E5093092650123CF44275FEF68E04FBFC4
:100520005DBF6EBF05D011D00E9429010C949802C6
:1005300012E004EAB1E0A0E0F0E2E8E102C00590D8
:100540000D92A017B107D9F70895112413E00CE01C
:10055000B2E0A4EA01C01D92A017B107E1F7089527
:100560000C94B00283B7816083BF089583B78E7FF8
:1005700083BF089583B7816083BF889583B78E7FDB
:1005800083BF089593B7917F93BF93B7880F892B4B
:1005900083BF0895CF93C62F0E94C202CC2319F0C7
:1005A000CF910C94B202CF910C94B60285B78066BD
:1005B00085BF85B78F7D85BF08958FEE80936400DA
:1005C0000E94D60290E080E00E94C2020C94B20227
:1005D000809364000895809164000895FB9A0895C3
:1005E000FB9808959FB39F7C9FBB9FB38295807FAC
:1005F000892B8FBB0895CF93C62F0E94F202CC2384
:1006000019F0CF910C94EE02CF910C94F00292BDB0
:1006100081BD60BDFA9AF99A089592BD81BDF89A9C
:1006200080B508958FB38695817008951F93CF93F9
:10063000DF93EC01162F0E9412038111FCCF612F72
:10064000CE01DF91CF911F910C940703EF92FF929F
:100650000F931F93CF93DF938B01040F111DEB01B9
:100660007C01E61AF70AC7018C0F9D1FC017D1073E
:1006700039F4DF91CF911F910F91FF90EF90089582
:1006800069910E941603EFCFCF93DF93EC010E9494
:1006900012038111FCCFCE01DF91CF910C940D0399
:1006A000EF92FF920F931F93CF93DF938B01040F71
:1006B000111DEB017C01E61AF70AC7018C0F9D1F83
:1006C000C017D10739F4DF91CF911F910F91FF909F
:1006D000EF9008950E9444038993EFCFFC01A0811D
:1006E000B181AA0FBB1FAD58BE4F0D90BC91A02D7C
:1006F000828121E030E001C0220F8A95EAF78C91D7
:1007000062307105B9F4282B2C93A081B181AA0F16
:10071000BB1FA758BE4F0D90BC91A02D2C913281CC
:1007200081E090E001C0880F3A95EAF78095822336
:100730008C930895209528232C936130710529F717
:10074000A081B181AA0FBB1FA758BE4F0D90BC91CD
:10075000A02D8C91928101C0660F9A95EAF7682BC3
:100760006C930895DC01ED91FC911197EE0FFF1F42
:10077000E758FE4F0190F081E02D12962C9181E018
:1007800090E001C0880F2A95EAF79081662319F05E
:10079000892B8083089580958923FBCFDC01ED911F
:1007A000FC911197EE0FFF1FE758FE4F0190F0816B
:1007B000E02D908112968C9121E030E001C0220F53
:1007C0008A95EAF7892F822780830895DC01ED91CD
:1007D000FC911197EE0FFF1FE359FE4F0190F0813E
:1007E000E02D208130E012968C91F90102C0F59540
:1007F000E7958A95E2F7CF0181700895AC01E9E6AB
:10080000F0E090819A01220F331F01C0660F2A95F4
:10081000EAF7692B60839DB321E030E001C0220F2D
:100820004A95EAF7892F822B8DBB08959DB321E06D
:1008300030E001C0220F8A95EAF7209529232DBBCD
:10084000089590E0883028F0885091E0873008F0D3
:1008500092E08091680021E030E001C0220F9A957B
:10086000EAF7822B80936800089520E0883028F012
:10087000885021E0873008F022E03091680081E064
:1008800090E001C0880F2A95EAF780958323809332
:100890006800089520E0883030F098EF980F21E04C
:1008A000973008F022E030E0F901EE0FFF1FE15829
:1008B000FE4F0190F081E02D908143E0220F331F25
:1008C0004A95E1F7482F421B21E030E001C0220F9A
:1008D0004A95EAF7922B90830C94210420E088300B
:1008E00030F098EF980F21E0973008F022E030E0E8
:1008F000F901EE0FFF1FE158FE4F0190F081E02D4E
:10090000408153E0220F331F5A95E1F7821B282FB5
:1009100081E090E001C0880F2A95EAF78095842352
:1009200080830895FC012181F8E02F9F900111241C
:10093000622BFC0180810E94960791E08F3F09F0B5
:1009400090E0892F08950F931F93CF938C01C62FAA
:1009500064600E949204811106C0C0E08C2FCF9188
:100960001F910F91089581E090E00E9456096C2F2D
:100970006B7FC8010E949204C82F882371F382E321
:1009800090E00E945609EACF1F93CF93DF93EC01CA
:10099000162F0E949204882349F0612FCE010E94F5
:1009A000A3048170DF91CF911F91089580E0F9CF6A
:1009B0000F931F93CF938C01C62F607F0E94C404B6
:1009C000882361F080E1C89FB0011124C8010E9412
:1009D000C4048170CF911F910F91089580E0F9CFE9
:1009E0000F931F93CF938C01C62F607F61600E948D
:1009F000C404882361F06C2F6295607F6160C80138
:100A00000E94C4048170CF911F910F91089580E0DE
:100A1000F9CF0F931F93CF93DF938C01EB01699173
:100A2000611102C081E005C0C8010E94F00481117B
:100A3000F6CFDF91CF911F910F91089560E00C9454
:100A40009204CF9361E00E94D804C82F882321F03C
:100A500082E090E00E944C098C2FCF910895CF93B3
:100A6000DF93EC0182E390E00E944C0960E3CE0149
:100A70000E94C404811105C0C0E08C2FDF91CF918A
:100A8000089584E090E10E94560960E3CE010E943F
:100A9000C404882389F384E690E00E94560960E349
:100AA000CE010E94C404882339F384E690E00E94BA
:100AB000560960E2CE010E94C4048823E9F284E66C
:100AC00090E00E94560968E2CE010E94D804882373
:100AD00099F285E390E00E9456096CE0CE010E94F5
:100AE000D804882349F285E390E00E945609CE019C
:100AF0000E942105882309F4BFCF66E0CE010E9441
:100B0000D804C82F882309F4B7CF85E390E00E946A
:100B10005609B3CFCF9362E00E94D804C82F882330
:100B200021F082E090E00E944C098C2FCF91089533
:100B30000F931F9360EC012B022B032B09F460E849
:100B4000640F60681F910F910C94D804EF92FF928C
:100B50000F931F93CF93DF938C017A0188E0689FF6
:100B6000B00111246064C8010E94D8048823A1F058
:100B7000E70188E0E80EF11C6991C8010E94F004C9
:100B8000882351F0CE15DF05B9F7DF91CF911F9182
:100B90000F91FF90EF90089580E0F7CFEF92FF92D2
:100BA0000F931F93CF937C010DEA11E0C0E0A801E1
:100BB0006C2FC7010E94A605882329F0CF5F085F2C
:100BC0001F4FC830A1F7CF911F910F91FF90EF9069
:100BD0000895FF920F931F93CF93DF938C01F62E0E
:100BE000C42F60E86F0D60680E94D804811108C0AE
:100BF00080E08170DF91CF911F910F91FF90089558
:100C000084E0C89FE0011124CB57DE4F6881C80102
:100C10000E94F004882361F36981C8010E94F004F6
:100C2000882331F360EC6F0D6068C8010E94D8041E
:100C30008823F1F26A81C8010E94F0048823C1F27E
:100C40006B81C8010E94F004D4CF68E10C94D804F1
:100C50006CE10C94D80468E00C94D8046CE00C941B
:100C6000D8040C942E066EE00C94D8040C942E0636
:100C70006DE00C94D80466E00C94D80464E00C9405
:100C8000D80467E00C94D8040C943B06CF93DF9310
:100C90001F92CDB7DEB7198221E0AE014F5F5F4FE3
:100CA00062E088E60E9402088F3F11F090E025C0C4
:100CB00089818F7B898321E0AE014F5F5F4F62E0C6
:100CC00088E60E94CF078F3F89F721E0AE014F5F92
:100CD0005F4F6EE088E60E9402088F3F39F78981F6
:100CE000837E898321E0AE014F5F5F4F6EE088E62F
:100CF0000E94CF0791E08F3FC9F6892F0F90DF91B7
:100D0000CF9108950F931F93CF93DF9300D01F923D
:100D1000CDB7DEB78C01FC0180810E944509898333
:100D2000F80181810E9445098A83F80182810E942D
:100D300045098B8323E0AE014F5F5F4F60E088E69B
:100D40000E94CF0791E08F3F09F090E0892F0F902C
:100D50000F900F90DF91CF911F910F9108951F93E6
:100D6000CF93DF93EC0123E0AC0160E088E60E94C2
:100D70000208182F88810E943C09888389810E947B
:100D80003C0989838A818F730E943C098A8381E0B0
:100D90001F3F09F080E0DF91CF911F910895E4E6B5
:100DA000F0E080818F778083ECEBF0E080818460DD
:100DB00080830895ECEBF0E080818B7F8083E4E614
:100DC000F0E08081806880830895ECEBF0E0808122
:100DD0008064808308958091BC00881F8827881FC5
:100DE000089580910B0384688093BC00089581E08E
:100DF00080930B03ECEBF0E08081816080830895A9
:100E000010920B03ECEBF0E080818E7F80830895DD
:100E1000CF93C62F209164002F77209364008351D5
:100E20009E4FFC0180818093B80061E070E082EF0A
:100E300091E00E946E0361E070E08FEE91E00E940D
:100E40006E03CC2329F00E94F706CF910C94CF06B5
:100E50000E940007FACF8091B900887F08958091A1
:100E60000B03846A8093BC00089580910B0384690E
:100E70008093BC0008958093BB000C94F106809190
:100E8000BB0008950E942F078091BC0087FFFCCF14
:100E90008091B900887F883011F0803109F48FEF9C
:100EA00008950E9435078091BC0084FDFCCF80919D
:100EB000B900887F883F09F48FEF08959091BC00B6
:100EC00097FFFCCF8093BB000E94F1068091BC008D
:100ED00087FFFCCF8091B900887F883121F0803472
:100EE00011F0883209F48FEF08950F931F93CF9379
:100EF0008C01C62F0E94F106C1110E94E506809167
:100F0000BC0087FFFCCF8091BB00F80180838091FB
:100F1000B900887FCC2321F0803521F48FEF02C007
:100F20008835E1F3CF911F910F910895CF93DF930F
:100F3000D82FC62F0E9442078F3F79F48D2F880F3C
:100F40000E945E078F3F49F48C2F0E945E078F3FFF
:100F500021F4DF91CF910C945107DF91CF91089547
:100F60000F931F93CF93C82F8B010E9442078F3F8F
:100F700091F48C2F880F81600E945E078F3F59F497
:100F800060E0C8010E9475078F3F29F4CF911F913F
:100F90000F910C945107CF911F910F910895FF92DB
:100FA0000F931F93CF93DF93D82FC62FF42E152FB7
:100FB000022F0E9442078F3FF9F48D2F880F0E9465
:100FC0005E078F3FC9F48C2F0E945E078F3FA1F40C
:100FD000CF2DD12F0C0F1D2F111D0C171D0739F40C
:100FE000DF91CF911F910F91FF900C945107899140
:100FF0000E945E078F3F89F3DF91CF911F910F9180
:10100000FF900895CF92DF92EF92FF920F931F937C
:10101000CF93DF93C82FD62F7A01022F0E94420769
:101020008F3FB1F5CC0F8C2F0E945E078F3F81F56B
:101030008D2F0E945E078F3F59F50E9442078F3F18
:1010400039F58C2F81600E945E078F3F09F510E013
:10105000D0E0C0E0680181E0C81AD1080C171D0774
:1010600051F4DF91CF911F910F91FF90EF90DF909E
:10107000CF900C94510761E0CC16DD0609F460E0D6
:10108000C7018C0F9D1F0E94750721968F3F31F37A
:10109000DF91CF911F910F91FF90EF90DF90CF9054
:1010A0000895009749F0019749F490E28091C100BA
:1010B000892B8093C100089590E8F8CF90E0F6CF97
:1010C000CF93C42F209164002D7F20936400209142
:1010D000C10028612093C100880F991FFC01EB50CB
:1010E000FE4F808191819093C5008093C400662358
:1010F00021F081E090E00E945108CC2329F090E09B
:1011000080E0CF910C945108CF910895009751F051
:10111000019751F480E29091C100809589238093DA
:10112000C100089580E8F7CF80E0F5CF8093C60036
:1011300008958091C60008958091C000881F882777
:10114000881F08958091C00085FB882780F9089545
:10115000CF93C82F0E94A2088823E1F3C093C60052
:10116000CF9108958091C00087FFFCCF8091C60089
:1011700008950F931F93CF938C01C0E0F801EC0FFB
:10118000F11D8081811104C0CF911F910F910895AD
:101190000E94A808CF5FF2CF0F931F93CF93DF93E6
:1011A000D62F8C01C0E0CD1739F00E94B208F801AB
:1011B00081938F01811107C08FEF8C0FDF91CF9149
:1011C0001F910F910895CF5FEECFEF92FF920F9393
:1011D0001F93CF93DF937C01D62FC0E087010C0FC4
:1011E000111DCD1768F40E94B208F8018083982F72
:1011F0009F7D21F08A3011F08D3071F40E94A80893
:10120000F8011082C111C1508C2FDF91CF911F9135
:101210000F91FF90EF900895CC2361F0883051F446
:10122000C1500E94A80880E20E94A80888E00E949D
:10123000A808D4CF0E94A808CF5FD0CF0F931F93E8
:10124000CF93DF93FC01EB01C801821B930BBA0122
:101250006C1B7D0B0E94BD09EC1BFD0B6E9FC0013A
:101260006F9F900D7E9F900D1124820F931FDF9131
:10127000CF911F910F910895982F92959F708F7025
:101280002AE0929F800D112408956AE00E94B1091E
:101290008295807F890F0895019708F4089520EAC8
:1012A0003FE0000021503109E1F7F6CF019728F027
:1012B0000000000000000000F9CF0895A8950895EF
:1012C000E0E6F0E08081886080830895A89584B787
:1012D000877F84BFE0E6F0E0808188618083808141
:1012E000877F80830895E0E6F0E0808180648083DA
:1012F0000895E0E6F0E080818F7B80830895A895D3
:10130000E0E6F0E02081982F9770287D922B880FDF
:10131000880F8072892B90819861908380830895D3
:1013200084B783FB882780F908950F931F93CF9389
:101330008C01C62FA8950E949009882319F084B7C4
:10134000877F84BFC8010E947F09CC2339F00E94A7
:101350007309CF911F910F910C9460090E94790934
:10136000F8CF991B79E004C0991F961708F0961BD7
:10137000881F7A95C9F780950895AA1BBB1B51E178
:1013800007C0AA1FBB1FA617B70710F0A61BB70BF5
:10139000881F991F5A95A9F780959095BC01CD019A
:1013A0000895FB01DC010D900020E9F711970190F1
:1013B0000D920020E1F70895FB01DC018D91019071
:1013C00080190110D9F3990B0895FB01DC010190FC
:1013D0000D920020E1F70895FB01DC0141505040DF
:1013E00030F08D910190801919F40020B9F7881B15
:1013F000990B0895AEE0B0E0E0E0FAE00C94CA0F7B
:101400000D891E898F89988D26E02C831A83098384
:1014100097FF02C080E090E801979E838D83AE0124
:10142000455E5F4F698D7A8DCE0101960E94430A19
:101430004D815E8157FD0AC02F81388542175307C1
:101440000CF49A01020F131FF80110822E96E4E0AB
:101450000C94E60FAEE0B0E0E0E3FAE00C94CC0FC1
:1014600085E08C838B899C899A838983AE01495E50
:101470005F4F6D897E89CE0101960E94A80D2E9640
:10148000E2E00C94E80FABE0B0E0E9E4FAE00C94A1
:10149000BC0F7C013B018A01FC011782168283810B
:1014A00081FFC8C1CE0101965C01F7019381F30170
:1014B00093FD859193FF81913F01882309F453C1E6
:1014C000853239F493FD859193FF81913F018532F7
:1014D00029F4B70190E00E94130FE7CF912C212C43
:1014E000312CFFE1F31538F08B3211F190F480329A
:1014F00009F1833229F137FC3CC020ED280F2A3056
:1015000050F536FE20C08AE0989E200D1124922EC0
:1015100006C08D3291F0803371F7689430F8F30192
:1015200093FD859193FF81913F018111DACF21C015
:10153000689431F8689432F8F2CF689433F8EFCFBA
:10154000689434F8ECCFEAE02E9E200D1124222E70
:10155000689435F8E4CF8E3229F436FC04C16894DF
:1015600036F8DDCF8C3619F4689437F8D8CF883642
:10157000B1F2982F9F7D95549330E0F08336A1F11E
:101580008337C1F1833509F063C02801F2E04F0EC3
:10159000511CF801C080D180692D70E036FC02C07A
:1015A0006FEF7FEFC6010E94C10E4C01689437F8BF
:1015B00082010AC00C5F1F4FFFE3F98388248394E4
:1015C000912C6501E89437F833FE2DC0522C81141C
:1015D000910471F5552009F468CFB70180E290E0DD
:1015E0000E94130F5A94F6CFF801808189830E5F11
:1015F0001F4FE4CF2801F2E04F0E511CF801C080CC
:10160000D180692D70E036FC02C06FEF7FEFC6011C
:101610000E94CC0E4C018201D5CFB70180E290E050
:101620000E94130F2A942814190409F0B0F7CECFA2
:10163000F60137FC859137FE81916F01B70190E08B
:101640000E94130F51105A94F1E08F1A9108BFCFE6
:10165000843619F0893609F077C0F80137FE6BC07F
:1016600060817181828193810C5F1F4FF32DFF7622
:101670003F2E97FF09C090958095709561957F4F9B
:101680008F4F9F4F689437F82AE030E0A5010E9401
:101690005B0FC82ECA188C2C432C36FE0CC0E89465
:1016A00040F8C91440F434FE05C032FC03C0F32DE9
:1016B000FE7E4F2E892C44FE95C0FE01EC0DF11DDF
:1016C0008081803309F087C0242D297E422E842D0D
:1016D0008870582E43FC95C040FE8FC09C2C82140D
:1016E00018F42C0C922C981844FE91C0B70180E39A
:1016F00090E00E94130F42FE09C088E790E041FE8F
:1017000002C088E590E0B7010E94130FC91408F4E5
:101710008AC0CA94D12C9FEFC91AD90ACA0CDB1C03
:10172000F60182916F01B70190E00E94130FAC1493
:10173000BD04B1F74FCF60817181072E000C880B7B
:10174000990B0E5F1F4F92CFD32CE894D4F82AE068
:1017500030E0853739F1232D297FD22E8F3601F1E4
:1017600048F48835A9F0F701868197812B96E2E14C
:101770000C94D80F803749F08837A9F7D4FE02C0FF
:101780006894D2F820E130E00DC06894D4F8F6CF28
:1017900034FE03C0822F8660D82E20E132E002C0E2
:1017A00028E030E0F801D7FE0FC0608171818281AE
:1017B00093810C5F1F4FA5010E945B0FC82ECA18B2
:1017C0003D2CE89437F867CF6081718190E080E02C
:1017D0000E5F1F4FF0CF42FC02C0839478CF8394FA
:1017E000839475CF842D867809F471CFF6CFB70135
:1017F00080E290E00E94130F83948214C0F3512C76
:1018000073CF522C5818821408F46ECFF8CF842D61
:10181000867809F47BCF8BE241FE80E247FC8DE2C3
:10182000B70190E071CFB70180E390E00E94130F01
:101830009A946CCF8FEF9FEF99CF20FD09C0FC01E8
:1018400023FD05C022FF02C073836283518340835E
:10185000089544FD17C046FD1DC0DB01FC01AA0F21
:10186000BB1FEE1FFF1F1094D1F76A0F7B1F8E1F47
:101870009F1F660F771F881F991F620F711D811DA3
:10188000911D089533E0660F771F881F991F31500F
:10189000D1F7F3CF34E0F7CF0F931F93CF93DF93BC
:1018A0008C01C8010E94D70EEC0197FD08C00E9470
:1018B000AD0E892BB1F7B801CE010E94430FCE01C6
:1018C000DF91CF911F910F9108958F929F92AF92C8
:1018D000BF92EF92FF920F931F93CF93DF938C01F0
:1018E000D62F7A01B22E0E94D70E9C0133272B32BD
:1018F000310529F02D323105A9F46894B7F8D1509B
:1019000061F480E0DF91CF911F910F91FF90EF90F4
:10191000BF90AF909F908F900895C8010E94D70EFE
:1019200097FDEFCFCB2DCD7F2B2D2073F9F4803396
:10193000E9F4AA24AA94AD0E89F0C8010E94D70E3A
:1019400097FD0CC0282F2F7D283561F4C264D2503A
:1019500029F0C8010E94D70E97FF08C0812C912C56
:1019600054011BC0B6FE2BC0C260DA2D812C912C15
:10197000540120ED280F283028F1C4FD09C02A3079
:1019800008F1C6FF05C02F7D3FEE320F3630C8F09C
:10199000B8010E94430FC1FFB4CFC7FF08C0B09485
:1019A000A09490948094811C911CA11CB11C2C2F9C
:1019B000B501A401C7010E941D0C81E0A3CFC26143
:1019C000D4CF27504C2FC501B4010E94290C4B01E4
:1019D0005C01C260D15009F3C8010E94D70E97FF85
:1019E000C8CFD9CFA0E2B0E0E8EFFCE00C94C10F83
:1019F0005C01962E7A01CE0101966C0180E2F6011F
:101A000011928A95E9F7F501B381890130E020E070
:101A1000712C812CA0E041E050E0F801B3FD8591EC
:101A2000B3FF8191982F8F01811107C010E000E072
:101A3000C801A096EDE00C94DD0F8E3519F4211548
:101A4000310541F1A21713064CF48D3549F18D3261
:101A500029F4811006C0882483941DC0882009F4CD
:101A600064C0E92FE695E695E695EC0DFD2DF11D98
:101A7000892F8770BA0101C0660F8A95EAF78081C5
:101A8000682B6083791651F0971510F49F5FE9CFAA
:101A90009150E7CFA1E02F5F3F4FBFCF812CFBCF0D
:101AA000882019F08E8180628E83AA2359F0F60176
:101AB0009E012F5D3F4F8081809580833196E21794
:101AC000F307C9F788248394C5010E94D70E97FDB8
:101AD00016C0E82FE695E695E695EC0DFD2DF11D77
:101AE000208130E0AC014770552702C0359527951D
:101AF0004A95E2F720FD06C0B5010E94430F8820F9
:101B000069F094CFE114F10429F0F7018083C70153
:101B100001967C019A94812C9110D6CFE114F104A6
:101B200009F486CFF701108283CFE82FE695E6957A
:101B3000E695EC0DFD2DF11D982F9770BA0101C0AF
:101B4000660F9A95EAF79081692B6083782EA3CF70
:101B5000B0E0A0E0EEEAFDE00C94BF0F6C01EB01F9
:101B60005A01FC0117821682512CF601E380FE0116
:101B7000E3FC8591E3FE8191182FEF018823E9F0C2
:101B800090E00E94AD0E892B21F0C6010E944C0C02
:101B9000ECCF153241F4FE01E3FC1591E3FE119107
:101BA000EF01153269F4C6010E94D70E97FD8EC071
:101BB0001817D9F2B6010E94430F852D90E08AC014
:101BC00000E01A3231F4E3FC1591E3FE1191EF01CC
:101BD00001E0F12C20ED210F2A3048F101FF37C040
:101BE000FF2059F31836B1F11C3609F43DC011231A
:101BF00021F3612F70E086EE9FE10E94B60E892BE3
:101C0000E1F2912C812C00FD06C0F50180809180CD
:101C1000C50102965C011E3679F5F60146815781B1
:101C200070E060E0202FC4010E941D0C9ECF026076
:101C30006F2D70E090E080E040E20E94290CF62ECB
:101C4000FE01E3FC1591E3FE1191EF01C3CFFF24E8
:101C5000FA94C8CFFE01E3FC1591E3FE1191EF0168
:101C6000183609F0C4CF08600460FE01E3FC15914A
:101C7000E3FE1191EF01BBCF1336C1F401FD02C0A9
:101C8000FF24F394C6010E94D70E97FD1FC0811454
:101C9000910429F0F4018083C40101964C01FA9467
:101CA000F110F0CF00FD61CF53945FCF1B35B9F435
:101CB0009E01A4016F2DC6010E94F20CEC01892B3C
:101CC00089F7F6018381807309F477CF8FEF9FEF57
:101CD000511073CFCDB7DEB7EFE00C94DB0FC60128
:101CE0000E944C0C97FDF2CF1F36A9F130F4143648
:101CF00041F0193639F0006405C01337B9F01537D3
:101D0000D1F70062202FA4016F2DC6010E94650C3F
:101D10008111C8CFD6CF8114910429F0F4016082DB
:101D2000C40101964C01FA94FF2071F0C6010E9493
:101D3000D70E3C0197FD08C00E94AD0E892B59F3C8
:101D4000B601C3010E94430F8114910409F4AACF84
:101D5000F4011082A7CF0061D5CF91110C94B90F77
:101D6000803219F089508550C8F70895FC0105901C
:101D7000061621F00020D9F7C00108953197CF0150
:101D80000895FC010590615070400110D8F78095CE
:101D900090958E0F9F1F0895FC0161507040019037
:101DA0000110D8F7809590958E0F9F1F0895CF93BF
:101DB000DF93EC012B8120FF1AC026FF0CC02F7B84
:101DC0002B838E819F8101969F838E838A8190E0F1
:101DD000DF91CF91089522FF18C0E881F9818081B9
:101DE000082E000C990B009729F420622B838FEFAB
:101DF0009FEFEECF3196F983E8832E813F812F5FED
:101E00003F4F3F832E839927E3CFEA85FB850995D2
:101E100097FFF3CF2B81019621F080E2822B8B83F9
:101E2000E6CF80E1FBCF0F931F93CF93DF93182F63
:101E3000092FEB018B8181FD09C01FEF0FEF812F6F
:101E4000902FDF91CF911F910F91089582FF14C0C1
:101E50002E813F818C819D81281739073CF4E881D0
:101E6000F981CF0101969983888310838E819F81A8
:101E700001969F838E83E3CFE885F985812F0995AD
:101E8000892BA1F3DACFFB01238120FF11C026FDAE
:101E90000FC08F3F980771F082832F7D20642383CA
:101EA0002681378121503109378326839927089568
:101EB0008FEF9FEF0895FA01AA27283051F12031C2
:101EC00081F1E8946F936E7F6E5F7F4F8F4F9F4FCE
:101ED000AF4FB1E03ED0B4E03CD0670F781F891F10
:101EE0009A1FA11D680F791F8A1F911DA11D6A0FDE
:101EF000711D811D911DA11D20D009F468943F9191
:101F00002AE0269F11243019305D3193DEF6CF018F
:101F10000895462F4770405D4193B3E00FD0C9F755
:101F2000F6CF462F4F70405D4A3318F0495D31FDC2
:101F30004052419302D0A9F7EACFB4E0A695979515
:101F4000879577956795BA95C9F7009761057105EB
:101F500008959B01AC010A2E069457954795379535
:101F60002795BA95C9F7620F731F841F951FA01D8F
:101F700008959927882708952F923F924F925F9254
:101F80006F927F928F929F92AF92BF92CF92DF9289
:101F9000EF92FF920F931F93CF93DF93CDB7DEB7EE
:101FA000CA1BDB0B0FB6F894DEBF0FBECDBF099482
:101FB0002A88398848885F846E847D848C849B84D9
:101FC000AA84B984C884DF80EE80FD800C811B81E7
:101FD000AA81B981CE0FD11D0FB6F894DEBF0FBE16
:101FE000CDBFED0108956364696E6F7073757858A5
:101FF0005B0012E0A0E0B1E0E8E1F0E202C0059091
:102000000D92A43AB107D9F723E0A4EAB2E001C0E7
:082010001D92AC30B207E1F7AC
:10201800010A0D41565220425350205465726D6991
:102028006E616C0A0D0A0D4350553A2041546D6596
:102038006761333238500A0D436C6F636B3A203155
:10204800364D487A0A0D466C6173683A2033324B34
:10205800420A0D5352414D3A20324B420A0D454532
:1020680050524F4D3A20314B420A0D0A0D3E200086
:1020780000000000005E0000270100000523002684
:10208800002900240027002A00250028002B006BC7
:10209800006C006D0001024C00207C207C04054C83
:1020A8005F06055F004C00200307045F0007044C2F
:1020B800000602200307054C000705200301010163
:1020C8000101011F001F101010101010001F010146
:1020D800010101010001010101010101001F0000CE
:1020E8000000001F001F01010101011F001F000067
:1020F80000000000001F10101010101F00480C01F5
:102108000005010004A001CF006700330019000892
:10211800000A0D52544320686173206265656E2081
:10212800646973636F6E6E65637465642E007365AE
:1021380074002530326868643A2530326868643A39
:10214800253032686864006765740073746F72655F
:10215800000A0D54696D652073746F7265642E00F2
:102168006C6F6164000A0D54696D65206C6F616461
:1021780065642E000A0D496E76616C696420636F90
:102188006D6D616E642E000A0D3E20000A0D5469C3
:102198006D652D6F7574207265736574210A0D5411
:1021A8005749205374617475733A2030782530325A
:0421B800580A0D00B4
:0400000300000518DC
:00000001FF
